{
  "_format": "hh3-artifact-1",
  "contractName": "AlumniDonation",
  "sourceName": "contracts/AlumniDonation.sol",
  "abi": [
    {
      "inputs": [],
      "stateMutability": "nonpayable",
      "type": "constructor"
    },
    {
      "inputs": [],
      "name": "AccessControlBadConfirmation",
      "type": "error"
    },
    {
      "inputs": [
        {
          "internalType": "address",
          "name": "account",
          "type": "address"
        },
        {
          "internalType": "bytes32",
          "name": "neededRole",
          "type": "bytes32"
        }
      ],
      "name": "AccessControlUnauthorizedAccount",
      "type": "error"
    },
    {
      "inputs": [],
      "name": "EnforcedPause",
      "type": "error"
    },
    {
      "inputs": [],
      "name": "ExpectedPause",
      "type": "error"
    },
    {
      "inputs": [],
      "name": "ReentrancyGuardReentrantCall",
      "type": "error"
    },
    {
      "anonymous": false,
      "inputs": [
        {
          "indexed": true,
          "internalType": "uint256",
          "name": "donationId",
          "type": "uint256"
        },
        {
          "indexed": true,
          "internalType": "uint256",
          "name": "projectId",
          "type": "uint256"
        },
        {
          "indexed": true,
          "internalType": "address",
          "name": "donor",
          "type": "address"
        },
        {
          "indexed": false,
          "internalType": "uint256",
          "name": "amount",
          "type": "uint256"
        },
        {
          "indexed": false,
          "internalType": "bool",
          "name": "isAnonymous",
          "type": "bool"
        }
      ],
      "name": "DonationReceived",
      "type": "event"
    },
    {
      "anonymous": false,
      "inputs": [
        {
          "indexed": true,
          "internalType": "uint256",
          "name": "expenseId",
          "type": "uint256"
        },
        {
          "indexed": true,
          "internalType": "uint256",
          "name": "projectId",
          "type": "uint256"
        },
        {
          "indexed": false,
          "internalType": "uint256",
          "name": "amount",
          "type": "uint256"
        }
      ],
      "name": "ExpenseApproved",
      "type": "event"
    },
    {
      "anonymous": false,
      "inputs": [
        {
          "indexed": true,
          "internalType": "uint256",
          "name": "expenseId",
          "type": "uint256"
        },
        {
          "indexed": true,
          "internalType": "uint256",
          "name": "projectId",
          "type": "uint256"
        },
        {
          "indexed": false,
          "internalType": "address",
          "name": "recipient",
          "type": "address"
        },
        {
          "indexed": false,
          "internalType": "uint256",
          "name": "amount",
          "type": "uint256"
        }
      ],
      "name": "ExpenseExecuted",
      "type": "event"
    },
    {
      "anonymous": false,
      "inputs": [
        {
          "indexed": true,
          "internalType": "uint256",
          "name": "expenseId",
          "type": "uint256"
        },
        {
          "indexed": true,
          "internalType": "uint256",
          "name": "projectId",
          "type": "uint256"
        },
        {
          "indexed": false,
          "internalType": "uint256",
          "name": "amount",
          "type": "uint256"
        },
        {
          "indexed": false,
          "internalType": "string",
          "name": "reason",
          "type": "string"
        }
      ],
      "name": "ExpenseRejected",
      "type": "event"
    },
    {
      "anonymous": false,
      "inputs": [
        {
          "indexed": true,
          "internalType": "uint256",
          "name": "expenseId",
          "type": "uint256"
        },
        {
          "indexed": true,
          "internalType": "uint256",
          "name": "projectId",
          "type": "uint256"
        },
        {
          "indexed": false,
          "internalType": "uint256",
          "name": "amount",
          "type": "uint256"
        },
        {
          "indexed": false,
          "internalType": "string",
          "name": "description",
          "type": "string"
        }
      ],
      "name": "ExpenseRequested",
      "type": "event"
    },
    {
      "anonymous": false,
      "inputs": [
        {
          "indexed": true,
          "internalType": "uint256",
          "name": "projectId",
          "type": "uint256"
        },
        {
          "indexed": true,
          "internalType": "address",
          "name": "recipient",
          "type": "address"
        },
        {
          "indexed": false,
          "internalType": "uint256",
          "name": "amount",
          "type": "uint256"
        }
      ],
      "name": "FundsWithdrawn",
      "type": "event"
    },
    {
      "anonymous": false,
      "inputs": [
        {
          "indexed": false,
          "internalType": "address",
          "name": "account",
          "type": "address"
        }
      ],
      "name": "Paused",
      "type": "event"
    },
    {
      "anonymous": false,
      "inputs": [
        {
          "indexed": true,
          "internalType": "uint256",
          "name": "projectId",
          "type": "uint256"
        },
        {
          "indexed": false,
          "internalType": "string",
          "name": "name",
          "type": "string"
        },
        {
          "indexed": true,
          "internalType": "address",
          "name": "creator",
          "type": "address"
        },
        {
          "indexed": false,
          "internalType": "uint256",
          "name": "targetAmount",
          "type": "uint256"
        },
        {
          "indexed": false,
          "internalType": "uint256",
          "name": "endTime",
          "type": "uint256"
        }
      ],
      "name": "ProjectCreated",
      "type": "event"
    },
    {
      "anonymous": false,
      "inputs": [
        {
          "indexed": true,
          "internalType": "uint256",
          "name": "projectId",
          "type": "uint256"
        },
        {
          "indexed": false,
          "internalType": "enum AlumniDonation.ProjectStatus",
          "name": "oldStatus",
          "type": "uint8"
        },
        {
          "indexed": false,
          "internalType": "enum AlumniDonation.ProjectStatus",
          "name": "newStatus",
          "type": "uint8"
        }
      ],
      "name": "ProjectStatusChanged",
      "type": "event"
    },
    {
      "anonymous": false,
      "inputs": [
        {
          "indexed": true,
          "internalType": "bytes32",
          "name": "role",
          "type": "bytes32"
        },
        {
          "indexed": true,
          "internalType": "bytes32",
          "name": "previousAdminRole",
          "type": "bytes32"
        },
        {
          "indexed": true,
          "internalType": "bytes32",
          "name": "newAdminRole",
          "type": "bytes32"
        }
      ],
      "name": "RoleAdminChanged",
      "type": "event"
    },
    {
      "anonymous": false,
      "inputs": [
        {
          "indexed": true,
          "internalType": "bytes32",
          "name": "role",
          "type": "bytes32"
        },
        {
          "indexed": true,
          "internalType": "address",
          "name": "account",
          "type": "address"
        },
        {
          "indexed": true,
          "internalType": "address",
          "name": "sender",
          "type": "address"
        }
      ],
      "name": "RoleGranted",
      "type": "event"
    },
    {
      "anonymous": false,
      "inputs": [
        {
          "indexed": true,
          "internalType": "bytes32",
          "name": "role",
          "type": "bytes32"
        },
        {
          "indexed": true,
          "internalType": "address",
          "name": "account",
          "type": "address"
        },
        {
          "indexed": true,
          "internalType": "address",
          "name": "sender",
          "type": "address"
        }
      ],
      "name": "RoleRevoked",
      "type": "event"
    },
    {
      "anonymous": false,
      "inputs": [
        {
          "indexed": false,
          "internalType": "address",
          "name": "account",
          "type": "address"
        }
      ],
      "name": "Unpaused",
      "type": "event"
    },
    {
      "inputs": [],
      "name": "DEFAULT_ADMIN_ROLE",
      "outputs": [
        {
          "internalType": "bytes32",
          "name": "",
          "type": "bytes32"
        }
      ],
      "stateMutability": "view",
      "type": "function"
    },
    {
      "inputs": [],
      "name": "PLATFORM_ADMIN",
      "outputs": [
        {
          "internalType": "bytes32",
          "name": "",
          "type": "bytes32"
        }
      ],
      "stateMutability": "view",
      "type": "function"
    },
    {
      "inputs": [],
      "name": "PROJECT_AUDITOR",
      "outputs": [
        {
          "internalType": "bytes32",
          "name": "",
          "type": "bytes32"
        }
      ],
      "stateMutability": "view",
      "type": "function"
    },
    {
      "inputs": [
        {
          "internalType": "uint256",
          "name": "_expenseId",
          "type": "uint256"
        }
      ],
      "name": "approveExpense",
      "outputs": [],
      "stateMutability": "nonpayable",
      "type": "function"
    },
    {
      "inputs": [
        {
          "internalType": "uint256",
          "name": "_projectId",
          "type": "uint256"
        }
      ],
      "name": "completeProject",
      "outputs": [],
      "stateMutability": "nonpayable",
      "type": "function"
    },
    {
      "inputs": [
        {
          "internalType": "string",
          "name": "_name",
          "type": "string"
        },
        {
          "internalType": "string",
          "name": "_description",
          "type": "string"
        },
        {
          "internalType": "uint256",
          "name": "_targetAmount",
          "type": "uint256"
        },
        {
          "internalType": "uint256",
          "name": "_duration",
          "type": "uint256"
        }
      ],
      "name": "createProject",
      "outputs": [
        {
          "internalType": "uint256",
          "name": "",
          "type": "uint256"
        }
      ],
      "stateMutability": "nonpayable",
      "type": "function"
    },
    {
      "inputs": [
        {
          "internalType": "uint256",
          "name": "_projectId",
          "type": "uint256"
        },
        {
          "internalType": "string",
          "name": "_message",
          "type": "string"
        },
        {
          "internalType": "bool",
          "name": "_isAnonymous",
          "type": "bool"
        }
      ],
      "name": "donate",
      "outputs": [],
      "stateMutability": "payable",
      "type": "function"
    },
    {
      "inputs": [],
      "name": "donationCounter",
      "outputs": [
        {
          "internalType": "uint256",
          "name": "",
          "type": "uint256"
        }
      ],
      "stateMutability": "view",
      "type": "function"
    },
    {
      "inputs": [
        {
          "internalType": "uint256",
          "name": "",
          "type": "uint256"
        }
      ],
      "name": "donations",
      "outputs": [
        {
          "internalType": "uint256",
          "name": "id",
          "type": "uint256"
        },
        {
          "internalType": "uint256",
          "name": "projectId",
          "type": "uint256"
        },
        {
          "internalType": "address",
          "name": "donor",
          "type": "address"
        },
        {
          "internalType": "uint256",
          "name": "amount",
          "type": "uint256"
        },
        {
          "internalType": "uint256",
          "name": "timestamp",
          "type": "uint256"
        },
        {
          "internalType": "string",
          "name": "message",
          "type": "string"
        },
        {
          "internalType": "bool",
          "name": "isAnonymous",
          "type": "bool"
        },
        {
          "internalType": "bool",
          "name": "exists",
          "type": "bool"
        }
      ],
      "stateMutability": "view",
      "type": "function"
    },
    {
      "inputs": [
        {
          "internalType": "address",
          "name": "",
          "type": "address"
        },
        {
          "internalType": "uint256",
          "name": "",
          "type": "uint256"
        }
      ],
      "name": "donorHistory",
      "outputs": [
        {
          "internalType": "uint256",
          "name": "",
          "type": "uint256"
        }
      ],
      "stateMutability": "view",
      "type": "function"
    },
    {
      "inputs": [
        {
          "internalType": "uint256",
          "name": "_projectId",
          "type": "uint256"
        }
      ],
      "name": "emergencyWithdraw",
      "outputs": [],
      "stateMutability": "nonpayable",
      "type": "function"
    },
    {
      "inputs": [
        {
          "internalType": "uint256",
          "name": "_expenseId",
          "type": "uint256"
        }
      ],
      "name": "executeExpense",
      "outputs": [],
      "stateMutability": "nonpayable",
      "type": "function"
    },
    {
      "inputs": [],
      "name": "expenseCounter",
      "outputs": [
        {
          "internalType": "uint256",
          "name": "",
          "type": "uint256"
        }
      ],
      "stateMutability": "view",
      "type": "function"
    },
    {
      "inputs": [
        {
          "internalType": "uint256",
          "name": "",
          "type": "uint256"
        }
      ],
      "name": "expenses",
      "outputs": [
        {
          "internalType": "uint256",
          "name": "id",
          "type": "uint256"
        },
        {
          "internalType": "uint256",
          "name": "projectId",
          "type": "uint256"
        },
        {
          "internalType": "string",
          "name": "description",
          "type": "string"
        },
        {
          "internalType": "uint256",
          "name": "amount",
          "type": "uint256"
        },
        {
          "internalType": "address",
          "name": "recipient",
          "type": "address"
        },
        {
          "internalType": "enum AlumniDonation.ExpenseStatus",
          "name": "status",
          "type": "uint8"
        },
        {
          "internalType": "uint256",
          "name": "requestTime",
          "type": "uint256"
        },
        {
          "internalType": "uint256",
          "name": "executeTime",
          "type": "uint256"
        },
        {
          "internalType": "string",
          "name": "rejectReason",
          "type": "string"
        },
        {
          "internalType": "bool",
          "name": "exists",
          "type": "bool"
        }
      ],
      "stateMutability": "view",
      "type": "function"
    },
    {
      "inputs": [],
      "name": "getContractBalance",
      "outputs": [
        {
          "internalType": "uint256",
          "name": "",
          "type": "uint256"
        }
      ],
      "stateMutability": "view",
      "type": "function"
    },
    {
      "inputs": [],
      "name": "getDonationCount",
      "outputs": [
        {
          "internalType": "uint256",
          "name": "",
          "type": "uint256"
        }
      ],
      "stateMutability": "view",
      "type": "function"
    },
    {
      "inputs": [
        {
          "internalType": "address",
          "name": "_donor",
          "type": "address"
        }
      ],
      "name": "getDonorHistory",
      "outputs": [
        {
          "internalType": "uint256[]",
          "name": "",
          "type": "uint256[]"
        }
      ],
      "stateMutability": "view",
      "type": "function"
    },
    {
      "inputs": [],
      "name": "getProjectCount",
      "outputs": [
        {
          "internalType": "uint256",
          "name": "",
          "type": "uint256"
        }
      ],
      "stateMutability": "view",
      "type": "function"
    },
    {
      "inputs": [
        {
          "internalType": "uint256",
          "name": "_projectId",
          "type": "uint256"
        }
      ],
      "name": "getProjectDonations",
      "outputs": [
        {
          "internalType": "uint256[]",
          "name": "",
          "type": "uint256[]"
        }
      ],
      "stateMutability": "view",
      "type": "function"
    },
    {
      "inputs": [
        {
          "internalType": "uint256",
          "name": "_projectId",
          "type": "uint256"
        }
      ],
      "name": "getProjectExpenses",
      "outputs": [
        {
          "internalType": "uint256[]",
          "name": "",
          "type": "uint256[]"
        }
      ],
      "stateMutability": "view",
      "type": "function"
    },
    {
      "inputs": [
        {
          "internalType": "uint256",
          "name": "_projectId",
          "type": "uint256"
        }
      ],
      "name": "getProjectProgress",
      "outputs": [
        {
          "internalType": "uint256",
          "name": "",
          "type": "uint256"
        }
      ],
      "stateMutability": "view",
      "type": "function"
    },
    {
      "inputs": [
        {
          "internalType": "bytes32",
          "name": "role",
          "type": "bytes32"
        }
      ],
      "name": "getRoleAdmin",
      "outputs": [
        {
          "internalType": "bytes32",
          "name": "",
          "type": "bytes32"
        }
      ],
      "stateMutability": "view",
      "type": "function"
    },
    {
      "inputs": [
        {
          "internalType": "bytes32",
          "name": "role",
          "type": "bytes32"
        },
        {
          "internalType": "address",
          "name": "account",
          "type": "address"
        }
      ],
      "name": "grantRole",
      "outputs": [],
      "stateMutability": "nonpayable",
      "type": "function"
    },
    {
      "inputs": [
        {
          "internalType": "bytes32",
          "name": "role",
          "type": "bytes32"
        },
        {
          "internalType": "address",
          "name": "account",
          "type": "address"
        }
      ],
      "name": "hasRole",
      "outputs": [
        {
          "internalType": "bool",
          "name": "",
          "type": "bool"
        }
      ],
      "stateMutability": "view",
      "type": "function"
    },
    {
      "inputs": [],
      "name": "pause",
      "outputs": [],
      "stateMutability": "nonpayable",
      "type": "function"
    },
    {
      "inputs": [],
      "name": "paused",
      "outputs": [
        {
          "internalType": "bool",
          "name": "",
          "type": "bool"
        }
      ],
      "stateMutability": "view",
      "type": "function"
    },
    {
      "inputs": [],
      "name": "projectCounter",
      "outputs": [
        {
          "internalType": "uint256",
          "name": "",
          "type": "uint256"
        }
      ],
      "stateMutability": "view",
      "type": "function"
    },
    {
      "inputs": [
        {
          "internalType": "uint256",
          "name": "",
          "type": "uint256"
        },
        {
          "internalType": "uint256",
          "name": "",
          "type": "uint256"
        }
      ],
      "name": "projectDonations",
      "outputs": [
        {
          "internalType": "uint256",
          "name": "",
          "type": "uint256"
        }
      ],
      "stateMutability": "view",
      "type": "function"
    },
    {
      "inputs": [
        {
          "internalType": "uint256",
          "name": "",
          "type": "uint256"
        },
        {
          "internalType": "uint256",
          "name": "",
          "type": "uint256"
        }
      ],
      "name": "projectExpenses",
      "outputs": [
        {
          "internalType": "uint256",
          "name": "",
          "type": "uint256"
        }
      ],
      "stateMutability": "view",
      "type": "function"
    },
    {
      "inputs": [
        {
          "internalType": "uint256",
          "name": "",
          "type": "uint256"
        }
      ],
      "name": "projects",
      "outputs": [
        {
          "internalType": "uint256",
          "name": "id",
          "type": "uint256"
        },
        {
          "internalType": "string",
          "name": "name",
          "type": "string"
        },
        {
          "internalType": "string",
          "name": "description",
          "type": "string"
        },
        {
          "internalType": "address",
          "name": "creator",
          "type": "address"
        },
        {
          "internalType": "uint256",
          "name": "targetAmount",
          "type": "uint256"
        },
        {
          "internalType": "uint256",
          "name": "raisedAmount",
          "type": "uint256"
        },
        {
          "internalType": "uint256",
          "name": "startTime",
          "type": "uint256"
        },
        {
          "internalType": "uint256",
          "name": "endTime",
          "type": "uint256"
        },
        {
          "internalType": "enum AlumniDonation.ProjectStatus",
          "name": "status",
          "type": "uint8"
        },
        {
          "internalType": "bool",
          "name": "exists",
          "type": "bool"
        }
      ],
      "stateMutability": "view",
      "type": "function"
    },
    {
      "inputs": [
        {
          "internalType": "uint256",
          "name": "_expenseId",
          "type": "uint256"
        },
        {
          "internalType": "string",
          "name": "_reason",
          "type": "string"
        }
      ],
      "name": "rejectExpense",
      "outputs": [],
      "stateMutability": "nonpayable",
      "type": "function"
    },
    {
      "inputs": [
        {
          "internalType": "bytes32",
          "name": "role",
          "type": "bytes32"
        },
        {
          "internalType": "address",
          "name": "callerConfirmation",
          "type": "address"
        }
      ],
      "name": "renounceRole",
      "outputs": [],
      "stateMutability": "nonpayable",
      "type": "function"
    },
    {
      "inputs": [
        {
          "internalType": "uint256",
          "name": "_projectId",
          "type": "uint256"
        },
        {
          "internalType": "string",
          "name": "_description",
          "type": "string"
        },
        {
          "internalType": "uint256",
          "name": "_amount",
          "type": "uint256"
        },
        {
          "internalType": "address",
          "name": "_recipient",
          "type": "address"
        }
      ],
      "name": "requestExpense",
      "outputs": [],
      "stateMutability": "nonpayable",
      "type": "function"
    },
    {
      "inputs": [
        {
          "internalType": "bytes32",
          "name": "role",
          "type": "bytes32"
        },
        {
          "internalType": "address",
          "name": "account",
          "type": "address"
        }
      ],
      "name": "revokeRole",
      "outputs": [],
      "stateMutability": "nonpayable",
      "type": "function"
    },
    {
      "inputs": [
        {
          "internalType": "bytes4",
          "name": "interfaceId",
          "type": "bytes4"
        }
      ],
      "name": "supportsInterface",
      "outputs": [
        {
          "internalType": "bool",
          "name": "",
          "type": "bool"
        }
      ],
      "stateMutability": "view",
      "type": "function"
    },
    {
      "inputs": [],
      "name": "unpause",
      "outputs": [],
      "stateMutability": "nonpayable",
      "type": "function"
    },
    {
      "inputs": [
        {
          "internalType": "uint256",
          "name": "_projectId",
          "type": "uint256"
        },
        {
          "internalType": "enum AlumniDonation.ProjectStatus",
          "name": "_newStatus",
          "type": "uint8"
        }
      ],
      "name": "updateProjectStatus",
      "outputs": [],
      "stateMutability": "nonpayable",
      "type": "function"
    },
    {
      "stateMutability": "payable",
      "type": "receive"
    }
  ],
  "bytecode": "0x608060405234801562000010575f80fd5b5060017f9b779b17422d0df92223018b32b4d1fa46e071723d6817e2486d003becc55f0055620000415f33620000a2565b506200006e7f4ff52032f36e32ac782042a01802e20394d4255c84a3c046490be98ab632691b33620000a2565b506200009b7f389e9e94a0cbbda4801070e24dd312eb7da88cf217f6d8bdbcb6e1812092e71d33620000a2565b506200014e565b5f828152602081815260408083206001600160a01b038516845290915281205460ff1662000145575f838152602081815260408083206001600160a01b03861684529091529020805460ff19166001179055620000fc3390565b6001600160a01b0316826001600160a01b0316847f2f8788117e7eff1d82e926ec794901d17c78024a50270940304540a733656f0d60405160405180910390a450600162000148565b505f5b92915050565b612b86806200015c5f395ff3fe608060405260043610610215575f3560e01c80636f9fb98a1161011e578063c1d0a7d8116100a8578063ddcad2ae1161006d578063ddcad2ae14610675578063e55a62a81461068a578063f624afc61461069e578063f8626af8146106bd578063f8a518ed146106f0575f80fd5b8063c1d0a7d8146105d9578063c56f3cac146105f9578063d11d498b14610618578063d547741f14610637578063db8192bc14610656575f80fd5b806391d14854116100ee57806391d148541461053457806394ba970914610553578063a217fddf14610572578063af4afe0a14610585578063b579e7f1146105ba575f80fd5b80636f9fb98a146104d05780637969f3b8146104e2578063800cbe97146105015780638456cb5914610520575f80fd5b806338d187dd1161019f5780634113f9991161016f5780634113f99914610429578063413c3c6d146104485780634bd421be1461047b5780635312ea8e1461049a5780635c975abb146104b9575f80fd5b806338d187dd146103cd5780633bcff3b0146103e25780633e4cbf42146103f65780633f4ba83a14610415575f80fd5b8063107046bd116101e5578063107046bd1461030d5780632245f15214610342578063248a9ca3146103615780632f2ff15d1461038f57806336568abe146103ae575f80fd5b806301ffc9a71461026b5780630668472d1461029f5780630ccc9c30146102b45780630e617ad1146102e0575f80fd5b366102675760405162461bcd60e51b815260206004820152601f60248201527f55736520646f6e6174652066756e6374696f6e20746f2073656e64204554480060448201526064015b60405180910390fd5b5f80fd5b348015610276575f80fd5b5061028a61028536600461229b565b610705565b60405190151581526020015b60405180910390f35b6102b26102ad36600461230e565b61073b565b005b3480156102bf575f80fd5b506102d36102ce36600461236d565b610a8a565b6040516102969190612384565b3480156102eb575f80fd5b506102ff6102fa36600461236d565b610ae9565b604051908152602001610296565b348015610318575f80fd5b5061032c61032736600461236d565b610b6c565b6040516102969a9998979695949392919061243a565b34801561034d575f80fd5b506102b261035c36600461236d565b610cd7565b34801561036c575f80fd5b506102ff61037b36600461236d565b5f9081526020819052604090206001015490565b34801561039a575f80fd5b506102b26103a93660046124d3565b610dec565b3480156103b9575f80fd5b506102b26103c83660046124d3565b610e10565b3480156103d8575f80fd5b506102ff60035481565b3480156103ed575f80fd5b506002546102ff565b348015610401575f80fd5b506102d36104103660046124fd565b610e48565b348015610420575f80fd5b506102b2610eaf565b348015610434575f80fd5b506102b2610443366004612516565b610ec4565b348015610453575f80fd5b506102ff7f389e9e94a0cbbda4801070e24dd312eb7da88cf217f6d8bdbcb6e1812092e71d81565b348015610486575f80fd5b506102ff610495366004612578565b611202565b3480156104a5575f80fd5b506102b26104b436600461236d565b61122d565b3480156104c4575f80fd5b5060015460ff1661028a565b3480156104db575f80fd5b50476102ff565b3480156104ed575f80fd5b506102ff6104fc366004612598565b6113ab565b34801561050c575f80fd5b506102b261051b36600461236d565b6113c4565b34801561052b575f80fd5b506102b261162a565b34801561053f575f80fd5b5061028a61054e3660046124d3565b61163c565b34801561055e575f80fd5b506102ff61056d3660046125c0565b611664565b34801561057d575f80fd5b506102ff5f81565b348015610590575f80fd5b506105a461059f36600461236d565b611983565b6040516102969a99989796959493929190612638565b3480156105c5575f80fd5b506102b26105d436600461236d565b611af3565b3480156105e4575f80fd5b506102ff5f80516020612b1183398151915281565b348015610604575f80fd5b506102ff610613366004612578565b611c0f565b348015610623575f80fd5b506102b26106323660046126b8565b611c28565b348015610642575f80fd5b506102b26106513660046124d3565b611d64565b348015610661575f80fd5b506102d361067036600461236d565b611d88565b348015610680575f80fd5b506102ff60045481565b348015610695575f80fd5b506003546102ff565b3480156106a9575f80fd5b506102b26106b83660046126e9565b611de5565b3480156106c8575f80fd5b506106dc6106d736600461236d565b611f66565b604051610296989796959493929190612731565b3480156106fb575f80fd5b506102ff60025481565b5f6001600160e01b03198216637965db0b60e01b148061073557506301ffc9a760e01b6001600160e01b03198316145b92915050565b610743612040565b61074b61205b565b5f848152600560205260409020600801548490610100900460ff166107825760405162461bcd60e51b815260040161025e90612787565b8460015f8281526005602052604090206008015460ff1660038111156107aa576107aa61240a565b146107ef5760405162461bcd60e51b815260206004820152601560248201527450726f6a656374206973206e6f742061637469766560581b604482015260640161025e565b5f341161084d5760405162461bcd60e51b815260206004820152602660248201527f446f6e6174696f6e20616d6f756e74206d75737420626520677265617465722060448201526507468616e20360d41b606482015260840161025e565b5f86815260056020526040902060078101544211156108ae5760405162461bcd60e51b815260206004820152601d60248201527f50726f6a6563742066756e6472616973696e672068617320656e646564000000604482015260640161025e565b60038054905f6108bd836127cb565b9091555050600354604080516101008101825282815260208082018b905233828401523460608301524260808301528251601f8a01829004820281018201909352888352909160a08301918a908a90819084018382808284375f920182905250938552505050871515602080840191909152600160409384018190528583526006825291839020845181559084015191810191909155908201516002820180546001600160a01b0319166001600160a01b03909216919091179055606082015160038201556080820151600482015560a082015160058201906109a09082612876565b5060c08201516006909101805460e09093015115156101000261ff00199215159290921661ffff19909316929092171790556005820180543491905f906109e8908490612932565b90915550505f8881526008602090815260408083208054600180820183559185528385200185905533808552600a845282852080549283018155855293839020018490558051348152881515928101929092528a9184917f35f370d7185aede3c73ceda64e1afd693daff13b61d59a458183cfe42919cd5d910160405180910390a450505050610a8460015f80516020612b3183398151915255565b50505050565b5f81815260086020908152604091829020805483518184028101840190945280845260609392830182828015610add57602002820191905f5260205f20905b815481526020019060010190808311610ac9575b50505050509050919050565b5f818152600560205260408120600801548290610100900460ff16610b205760405162461bcd60e51b815260040161025e90612787565b5f8381526005602052604081206004810154909103610b42575f925050610b66565b60048101546005820154610b5890612710612945565b610b62919061295c565b9250505b50919050565b60056020525f908152604090208054600182018054919291610b8d906127f7565b80601f0160208091040260200160405190810160405280929190818152602001828054610bb9906127f7565b8015610c045780601f10610bdb57610100808354040283529160200191610c04565b820191905f5260205f20905b815481529060010190602001808311610be757829003601f168201915b505050505090806002018054610c19906127f7565b80601f0160208091040260200160405190810160405280929190818152602001828054610c45906127f7565b8015610c905780601f10610c6757610100808354040283529160200191610c90565b820191905f5260205f20905b815481529060010190602001808311610c7357829003601f168201915b5050506003840154600485015460058601546006870154600788015460089098015496976001600160a01b0390941696929550909350919060ff808216916101009004168a565b5f80516020612b11833981519152610cee81612081565b5f828152600560205260409020600801548290610100900460ff16610d255760405162461bcd60e51b815260040161025e90612787565b5f8381526005602052604090206001600882015460ff166003811115610d4d57610d4d61240a565b14610d935760405162461bcd60e51b815260206004820152601660248201527550726f6a656374206d7573742062652061637469766560501b604482015260640161025e565b60088101805460ff1916600290811790915542600783015560405185917ff75c354d0772e6386c514de8e03be6b7fb27fe941335caa779ee1b9f34fe0c1e91610dde9160019161297b565b60405180910390a250505050565b5f82815260208190526040902060010154610e0681612081565b610a84838361208b565b6001600160a01b0381163314610e395760405163334bd91960e11b815260040160405180910390fd5b610e43828261211a565b505050565b6001600160a01b0381165f908152600a6020908152604091829020805483518184028101840190945280845260609392830182828015610add57602002820191905f5260205f2090815481526020019060010190808311610ac95750505050509050919050565b5f610eb981612081565b610ec1612183565b50565b5f80516020612b11833981519152610edb81612081565b5f868152600560205260409020600801548690610100900460ff16610f125760405162461bcd60e51b815260040161025e90612787565b5f8411610f615760405162461bcd60e51b815260206004820152601d60248201527f416d6f756e74206d7573742062652067726561746572207468616e2030000000604482015260640161025e565b6001600160a01b038316610fb75760405162461bcd60e51b815260206004820152601960248201527f496e76616c696420726563697069656e74206164647265737300000000000000604482015260640161025e565b5f8781526005602081905260409091209081015485111561100f5760405162461bcd60e51b8152602060048201526012602482015271496e73756666696369656e742066756e647360701b604482015260640161025e565b60048054905f61101e836127cb565b91905055505f60045490506040518061014001604052808281526020018a815260200189898080601f0160208091040260200160405190810160405280939291908181526020018383808284375f92018290525093855250505060208083018a90526001600160a01b0389166040808501919091526060840183905242608085015260a084018390528051808301825283815260c0850152600160e0909401849052858352600782529182902084518155908401519281019290925582015160028201906110ec9082612876565b50606082015160038083019190915560808301516004830180546001600160a01b039092166001600160a01b031983168117825560a08601519391926001600160a81b0319161790600160a01b90849081111561114b5761114b61240a565b021790555060c0820151600582015560e0820151600682015561010082015160078201906111799082612876565b5061012091909101516008909101805460ff19169115159190911790555f8981526009602090815260408083208054600181018255908452919092200182905551899082907fdd3006471c4b6382787e7fbb39bdc4eff15ee9b7ea83d51dfcf3f1a30d0b921b906111ef908a908d908d906129c9565b60405180910390a3505050505050505050565b6009602052815f5260405f20818154811061121b575f80fd5b905f5260205f20015f91509150505481565b5f61123781612081565b5f828152600560205260409020600801548290610100900460ff1661126e5760405162461bcd60e51b815260040161025e90612787565b611276612040565b5f83815260056020819052604090912090810154806112ce5760405162461bcd60e51b81526020600482015260146024820152734e6f2066756e647320746f20776974686472617760601b604482015260640161025e565b5f60058301819055604051339083908381818185875af1925050503d805f8114611313576040519150601f19603f3d011682016040523d82523d5f602084013e611318565b606091505b505090508061135b5760405162461bcd60e51b815260206004820152600f60248201526e151c985b9cd9995c8819985a5b1959608a1b604482015260640161025e565b604051828152339087907ff440aec6b52895984d061d622e6edeba6210f7c3e059be920663140c084560d79060200160405180910390a3505050610e4360015f80516020612b3183398151915255565b600a602052815f5260405f20818154811061121b575f80fd5b5f80516020612b118339815191526113db81612081565b6113e3612040565b5f828152600760205260409020600881015460ff166114145760405162461bcd60e51b815260040161025e906129eb565b60016004820154600160a01b900460ff1660038111156114365761143661240a565b146114835760405162461bcd60e51b815260206004820152601860248201527f457870656e7365206d75737420626520617070726f7665640000000000000000604482015260640161025e565b5f60055f836001015481526020019081526020015f2090508160030154816005015410156114e85760405162461bcd60e51b8152602060048201526012602482015271496e73756666696369656e742066756e647360701b604482015260640161025e565b60048201805460ff60a01b1916600360a01b17905542600683015560038201546005820180545f9061151b908490612a1b565b9091555050600482015460038301546040515f926001600160a01b031691908381818185875af1925050503d805f8114611570576040519150601f19603f3d011682016040523d82523d5f602084013e611575565b606091505b50509050806115b85760405162461bcd60e51b815260206004820152600f60248201526e151c985b9cd9995c8819985a5b1959608a1b604482015260640161025e565b600183015460048401546003850154604080516001600160a01b039093168352602083019190915287917f60784bf38798726badbe655a4d93dc5cd2f545b7b8d6f21af643e62d0eb3c291910160405180910390a350505061162660015f80516020612b3183398151915255565b5050565b5f61163481612081565b610ec16121d5565b5f918252602082815260408084206001600160a01b0393909316845291905290205460ff1690565b5f5f80516020612b1183398151915261167c81612081565b61168461205b565b866116d15760405162461bcd60e51b815260206004820152601c60248201527f50726f6a656374206e616d652063616e6e6f7420626520656d70747900000000604482015260640161025e565b5f841161172c5760405162461bcd60e51b8152602060048201526024808201527f54617267657420616d6f756e74206d75737420626520677265617465722074686044820152630616e20360e41b606482015260840161025e565b5f831161177b5760405162461bcd60e51b815260206004820152601f60248201527f4475726174696f6e206d7573742062652067726561746572207468616e203000604482015260640161025e565b60028054905f61178a836127cb565b91905055505f60025490506040518061014001604052808281526020018a8a8080601f0160208091040260200160405190810160405280939291908181526020018383808284375f92019190915250505090825250604080516020601f8b0181900481028201810190925289815291810191908a908a90819084018382808284375f920182905250938552505033602084015250604082018890526060820152426080820181905260a090910190611843908790612932565b815260200160018152600160209182018190525f84815260058352604090208351815591830151908201906118789082612876565b506040820151600282019061188d9082612876565b506060820151600382810180546001600160a01b0319166001600160a01b03909316929092179091556080830151600483015560a0830151600583015560c0830151600683015560e083015160078301556101008301516008830180549192909160ff19169060019084908111156119075761190761240a565b02179055506101209190910151600890910180549115156101000261ff001990921691909117905533817fcfbb9cc3bd62a88127a0a357ef5745ce183a4f314f3f36a4302bbe74b89e2f1d8b8b8961195f8a42612932565b60405161196f9493929190612a2e565b60405180910390a398975050505050505050565b60076020525f9081526040902080546001820154600283018054929391926119aa906127f7565b80601f01602080910402602001604051908101604052809291908181526020018280546119d6906127f7565b8015611a215780601f106119f857610100808354040283529160200191611a21565b820191905f5260205f20905b815481529060010190602001808311611a0457829003601f168201915b505050506003830154600484015460058501546006860154600787018054969794966001600160a01b0385169650600160a01b90940460ff16949293919291611a69906127f7565b80601f0160208091040260200160405190810160405280929190818152602001828054611a95906127f7565b8015611ae05780601f10611ab757610100808354040283529160200191611ae0565b820191905f5260205f20905b815481529060010190602001808311611ac357829003601f168201915b5050506008909301549192505060ff168a565b7f389e9e94a0cbbda4801070e24dd312eb7da88cf217f6d8bdbcb6e1812092e71d611b1d81612081565b5f828152600760205260409020600881015460ff16611b4e5760405162461bcd60e51b815260040161025e906129eb565b5f6004820154600160a01b900460ff166003811115611b6f57611b6f61240a565b14611bb65760405162461bcd60e51b8152602060048201526017602482015276457870656e7365206d7573742062652070656e64696e6760481b604482015260640161025e565b60048101805460ff60a01b1916600160a01b1790556001810154600382015460405190815284907fcf8a52069121d97d379d5069aff21e8096d9d1eb37d87dcaf0c378803a48aae29060200160405180910390a3505050565b6008602052815f5260405f20818154811061121b575f80fd5b5f80516020612b11833981519152611c3f81612081565b5f838152600560205260409020600801548390610100900460ff16611c765760405162461bcd60e51b815260040161025e90612787565b5f848152600560205260409020600881015460ff16846003811115611c9d57611c9d61240a565b816003811115611caf57611caf61240a565b03611cfc5760405162461bcd60e51b815260206004820152601c60248201527f4e657720737461747573206d75737420626520646966666572656e7400000000604482015260640161025e565b60088201805486919060ff19166001836003811115611d1d57611d1d61240a565b0217905550857ff75c354d0772e6386c514de8e03be6b7fb27fe941335caa779ee1b9f34fe0c1e8287604051611d5492919061297b565b60405180910390a2505050505050565b5f82815260208190526040902060010154611d7e81612081565b610a84838361211a565b5f81815260096020908152604091829020805483518184028101840190945280845260609392830182828015610add57602002820191905f5260205f2090815481526020019060010190808311610ac95750505050509050919050565b7f389e9e94a0cbbda4801070e24dd312eb7da88cf217f6d8bdbcb6e1812092e71d611e0f81612081565b5f848152600760205260409020600881015460ff16611e405760405162461bcd60e51b815260040161025e906129eb565b5f6004820154600160a01b900460ff166003811115611e6157611e6161240a565b14611ea85760405162461bcd60e51b8152602060048201526017602482015276457870656e7365206d7573742062652070656e64696e6760481b604482015260640161025e565b82611ef55760405162461bcd60e51b815260206004820152601d60248201527f52656a65637420726561736f6e2063616e6e6f7420626520656d707479000000604482015260640161025e565b60048101805460ff60a01b1916600160a11b17905560078101611f19848683612a54565b508060010154857f97e189e0664d1a363d410d7a44fa539cb4004103d5a8726a68ad21bd092dc56283600301548787604051611f57939291906129c9565b60405180910390a35050505050565b60066020525f9081526040902080546001820154600283015460038401546004850154600586018054959694956001600160a01b03909416949293919291611fad906127f7565b80601f0160208091040260200160405190810160405280929190818152602001828054611fd9906127f7565b80156120245780601f10611ffb57610100808354040283529160200191612024565b820191905f5260205f20905b81548152906001019060200180831161200757829003601f168201915b5050506006909301549192505060ff8082169161010090041688565b612048612210565b60025f80516020612b3183398151915255565b60015460ff161561207f5760405163d93c066560e01b815260040160405180910390fd5b565b610ec1813361223f565b5f612096838361163c565b612113575f838152602081815260408083206001600160a01b03861684529091529020805460ff191660011790556120cb3390565b6001600160a01b0316826001600160a01b0316847f2f8788117e7eff1d82e926ec794901d17c78024a50270940304540a733656f0d60405160405180910390a4506001610735565b505f610735565b5f612125838361163c565b15612113575f838152602081815260408083206001600160a01b0386168085529252808320805460ff1916905551339286917ff6391f5c32d9c69d2a47ea670b442974b53935d1edc7fd64eb21e047a839171b9190a4506001610735565b61218b612278565b6001805460ff191690557f5db9ee0a495bf2e6ff9c91a7834c1ba4fdd244a5e8aa4e537bd38aeae4b073aa335b6040516001600160a01b03909116815260200160405180910390a1565b6121dd61205b565b6001805460ff1916811790557f62e78cea01bee320cd4e420270b5ea74000d11b0c9f74754ebdbfc544b05a258336121b8565b5f80516020612b318339815191525460020361207f57604051633ee5aeb560e01b815260040160405180910390fd5b612249828261163c565b6116265760405163e2517d3f60e01b81526001600160a01b03821660048201526024810183905260440161025e565b60015460ff1661207f57604051638dfc202b60e01b815260040160405180910390fd5b5f602082840312156122ab575f80fd5b81356001600160e01b0319811681146122c2575f80fd5b9392505050565b5f8083601f8401126122d9575f80fd5b50813567ffffffffffffffff8111156122f0575f80fd5b602083019150836020828501011115612307575f80fd5b9250929050565b5f805f8060608587031215612321575f80fd5b84359350602085013567ffffffffffffffff81111561233e575f80fd5b61234a878288016122c9565b90945092505060408501358015158114612362575f80fd5b939692955090935050565b5f6020828403121561237d575f80fd5b5035919050565b602080825282518282018190525f9190848201906040850190845b818110156123bb5783518352928401929184019160010161239f565b50909695505050505050565b5f81518084525f5b818110156123eb576020818501810151868301820152016123cf565b505f602082860101526020601f19601f83011685010191505092915050565b634e487b7160e01b5f52602160045260245ffd5b60048110610ec157634e487b7160e01b5f52602160045260245ffd5b5f6101408c83528060208401526124538184018d6123c7565b90508281036040840152612467818c6123c7565b91505060018060a01b03891660608301528760808301528660a08301528560c08301528460e08301526124998461241e565b836101008301528215156101208301529b9a5050505050505050505050565b80356001600160a01b03811681146124ce575f80fd5b919050565b5f80604083850312156124e4575f80fd5b823591506124f4602084016124b8565b90509250929050565b5f6020828403121561250d575f80fd5b6122c2826124b8565b5f805f805f6080868803121561252a575f80fd5b85359450602086013567ffffffffffffffff811115612547575f80fd5b612553888289016122c9565b9095509350506040860135915061256c606087016124b8565b90509295509295909350565b5f8060408385031215612589575f80fd5b50508035926020909101359150565b5f80604083850312156125a9575f80fd5b6125b2836124b8565b946020939093013593505050565b5f805f805f80608087890312156125d5575f80fd5b863567ffffffffffffffff808211156125ec575f80fd5b6125f88a838b016122c9565b90985096506020890135915080821115612610575f80fd5b5061261d89828a016122c9565b979a9699509760408101359660609091013595509350505050565b5f6101408c83528b60208401528060408401526126578184018c6123c7565b606084018b90526001600160a01b038a16608085015290506126788861241e565b8760a08401528660c08401528560e084015282810361010084015261269d81866123c7565b9150508215156101208301529b9a5050505050505050505050565b5f80604083850312156126c9575f80fd5b823591506020830135600481106126de575f80fd5b809150509250929050565b5f805f604084860312156126fb575f80fd5b83359250602084013567ffffffffffffffff811115612718575f80fd5b612724868287016122c9565b9497909650939450505050565b5f6101008a835289602084015260018060a01b03891660408401528760608401528660808401528060a084015261276a818401876123c7565b94151560c0840152505090151560e0909101529695505050505050565b602080825260169082015275141c9bda9958dd08191bd95cc81b9bdd08195e1a5cdd60521b604082015260600190565b634e487b7160e01b5f52601160045260245ffd5b5f600182016127dc576127dc6127b7565b5060010190565b634e487b7160e01b5f52604160045260245ffd5b600181811c9082168061280b57607f821691505b602082108103610b6657634e487b7160e01b5f52602260045260245ffd5b601f821115610e43575f81815260208120601f850160051c8101602086101561284f5750805b601f850160051c820191505b8181101561286e5782815560010161285b565b505050505050565b815167ffffffffffffffff811115612890576128906127e3565b6128a48161289e84546127f7565b84612829565b602080601f8311600181146128d7575f84156128c05750858301515b5f19600386901b1c1916600185901b17855561286e565b5f85815260208120601f198616915b82811015612905578886015182559484019460019091019084016128e6565b508582101561292257878501515f19600388901b60f8161c191681555b5050505050600190811b01905550565b80820180821115610735576107356127b7565b8082028115828204841417610735576107356127b7565b5f8261297657634e487b7160e01b5f52601260045260245ffd5b500490565b604081016129888461241e565b8382526129948361241e565b8260208301529392505050565b81835281816020850137505f828201602090810191909152601f909101601f19169091010190565b838152604060208201525f6129e26040830184866129a1565b95945050505050565b602080825260169082015275115e1c195b9cd948191bd95cc81b9bdd08195e1a5cdd60521b604082015260600190565b81810381811115610735576107356127b7565b606081525f612a416060830186886129a1565b6020830194909452506040015292915050565b67ffffffffffffffff831115612a6c57612a6c6127e3565b612a8083612a7a83546127f7565b83612829565b5f601f841160018114612ab1575f8515612a9a5750838201355b5f19600387901b1c1916600186901b178355612b09565b5f83815260209020601f19861690835b82811015612ae15786850135825560209485019460019092019101612ac1565b5086821015612afd575f1960f88860031b161c19848701351681555b505060018560011b0183555b505050505056fe4ff52032f36e32ac782042a01802e20394d4255c84a3c046490be98ab632691b9b779b17422d0df92223018b32b4d1fa46e071723d6817e2486d003becc55f00a2646970667358221220c703d98e2d575edbd69401f7dcb1528e73f5b53731c76ea304a8bd2ee66f7dc564736f6c63430008140033",
  "linkReferences": {},
  "deployedLinkReferences": {},
  "immutableReferences": {},
  "inputSourceName": "project/contracts/AlumniDonation.sol",
  "buildInfoId": "solc-0_8_20-eeb147b07dd782c4dbb7f24a4e55b9b1a940dfea"
}