{
  "contractName": "AlumniDonation",
  "abi": [
    {
      "inputs": [],
      "stateMutability": "nonpayable",
      "type": "constructor"
    },
    {
      "inputs": [],
      "name": "AccessControlBadConfirmation",
      "type": "error"
    },
    {
      "inputs": [
        {
          "internalType": "address",
          "name": "account",
          "type": "address"
        },
        {
          "internalType": "bytes32",
          "name": "neededRole",
          "type": "bytes32"
        }
      ],
      "name": "AccessControlUnauthorizedAccount",
      "type": "error"
    },
    {
      "inputs": [],
      "name": "EnforcedPause",
      "type": "error"
    },
    {
      "inputs": [],
      "name": "ExpectedPause",
      "type": "error"
    },
    {
      "inputs": [],
      "name": "ReentrancyGuardReentrantCall",
      "type": "error"
    },
    {
      "anonymous": false,
      "inputs": [
        {
          "indexed": true,
          "internalType": "uint256",
          "name": "donationId",
          "type": "uint256"
        },
        {
          "indexed": true,
          "internalType": "uint256",
          "name": "projectId",
          "type": "uint256"
        },
        {
          "indexed": true,
          "internalType": "address",
          "name": "donor",
          "type": "address"
        },
        {
          "indexed": false,
          "internalType": "uint256",
          "name": "amount",
          "type": "uint256"
        },
        {
          "indexed": false,
          "internalType": "bool",
          "name": "isAnonymous",
          "type": "bool"
        }
      ],
      "name": "DonationReceived",
      "type": "event"
    },
    {
      "anonymous": false,
      "inputs": [
        {
          "indexed": true,
          "internalType": "uint256",
          "name": "expenseId",
          "type": "uint256"
        },
        {
          "indexed": true,
          "internalType": "uint256",
          "name": "projectId",
          "type": "uint256"
        },
        {
          "indexed": false,
          "internalType": "uint256",
          "name": "amount",
          "type": "uint256"
        }
      ],
      "name": "ExpenseApproved",
      "type": "event"
    },
    {
      "anonymous": false,
      "inputs": [
        {
          "indexed": true,
          "internalType": "uint256",
          "name": "expenseId",
          "type": "uint256"
        },
        {
          "indexed": true,
          "internalType": "uint256",
          "name": "projectId",
          "type": "uint256"
        },
        {
          "indexed": false,
          "internalType": "address",
          "name": "recipient",
          "type": "address"
        },
        {
          "indexed": false,
          "internalType": "uint256",
          "name": "amount",
          "type": "uint256"
        }
      ],
      "name": "ExpenseExecuted",
      "type": "event"
    },
    {
      "anonymous": false,
      "inputs": [
        {
          "indexed": true,
          "internalType": "uint256",
          "name": "expenseId",
          "type": "uint256"
        },
        {
          "indexed": true,
          "internalType": "uint256",
          "name": "projectId",
          "type": "uint256"
        },
        {
          "indexed": false,
          "internalType": "uint256",
          "name": "amount",
          "type": "uint256"
        },
        {
          "indexed": false,
          "internalType": "string",
          "name": "description",
          "type": "string"
        }
      ],
      "name": "ExpenseRequested",
      "type": "event"
    },
    {
      "anonymous": false,
      "inputs": [
        {
          "indexed": true,
          "internalType": "uint256",
          "name": "projectId",
          "type": "uint256"
        },
        {
          "indexed": true,
          "internalType": "address",
          "name": "recipient",
          "type": "address"
        },
        {
          "indexed": false,
          "internalType": "uint256",
          "name": "amount",
          "type": "uint256"
        }
      ],
      "name": "FundsWithdrawn",
      "type": "event"
    },
    {
      "anonymous": false,
      "inputs": [
        {
          "indexed": false,
          "internalType": "address",
          "name": "account",
          "type": "address"
        }
      ],
      "name": "Paused",
      "type": "event"
    },
    {
      "anonymous": false,
      "inputs": [
        {
          "indexed": true,
          "internalType": "uint256",
          "name": "projectId",
          "type": "uint256"
        },
        {
          "indexed": false,
          "internalType": "string",
          "name": "name",
          "type": "string"
        },
        {
          "indexed": true,
          "internalType": "address",
          "name": "creator",
          "type": "address"
        },
        {
          "indexed": false,
          "internalType": "uint256",
          "name": "targetAmount",
          "type": "uint256"
        },
        {
          "indexed": false,
          "internalType": "uint256",
          "name": "endTime",
          "type": "uint256"
        }
      ],
      "name": "ProjectCreated",
      "type": "event"
    },
    {
      "anonymous": false,
      "inputs": [
        {
          "indexed": true,
          "internalType": "uint256",
          "name": "projectId",
          "type": "uint256"
        },
        {
          "indexed": false,
          "internalType": "enum AlumniDonation.ProjectStatus",
          "name": "oldStatus",
          "type": "uint8"
        },
        {
          "indexed": false,
          "internalType": "enum AlumniDonation.ProjectStatus",
          "name": "newStatus",
          "type": "uint8"
        }
      ],
      "name": "ProjectStatusChanged",
      "type": "event"
    },
    {
      "anonymous": false,
      "inputs": [
        {
          "indexed": true,
          "internalType": "bytes32",
          "name": "role",
          "type": "bytes32"
        },
        {
          "indexed": true,
          "internalType": "bytes32",
          "name": "previousAdminRole",
          "type": "bytes32"
        },
        {
          "indexed": true,
          "internalType": "bytes32",
          "name": "newAdminRole",
          "type": "bytes32"
        }
      ],
      "name": "RoleAdminChanged",
      "type": "event"
    },
    {
      "anonymous": false,
      "inputs": [
        {
          "indexed": true,
          "internalType": "bytes32",
          "name": "role",
          "type": "bytes32"
        },
        {
          "indexed": true,
          "internalType": "address",
          "name": "account",
          "type": "address"
        },
        {
          "indexed": true,
          "internalType": "address",
          "name": "sender",
          "type": "address"
        }
      ],
      "name": "RoleGranted",
      "type": "event"
    },
    {
      "anonymous": false,
      "inputs": [
        {
          "indexed": true,
          "internalType": "bytes32",
          "name": "role",
          "type": "bytes32"
        },
        {
          "indexed": true,
          "internalType": "address",
          "name": "account",
          "type": "address"
        },
        {
          "indexed": true,
          "internalType": "address",
          "name": "sender",
          "type": "address"
        }
      ],
      "name": "RoleRevoked",
      "type": "event"
    },
    {
      "anonymous": false,
      "inputs": [
        {
          "indexed": false,
          "internalType": "address",
          "name": "account",
          "type": "address"
        }
      ],
      "name": "Unpaused",
      "type": "event"
    },
    {
      "inputs": [],
      "name": "DEFAULT_ADMIN_ROLE",
      "outputs": [
        {
          "internalType": "bytes32",
          "name": "",
          "type": "bytes32"
        }
      ],
      "stateMutability": "view",
      "type": "function"
    },
    {
      "inputs": [],
      "name": "PLATFORM_ADMIN",
      "outputs": [
        {
          "internalType": "bytes32",
          "name": "",
          "type": "bytes32"
        }
      ],
      "stateMutability": "view",
      "type": "function"
    },
    {
      "inputs": [],
      "name": "PROJECT_AUDITOR",
      "outputs": [
        {
          "internalType": "bytes32",
          "name": "",
          "type": "bytes32"
        }
      ],
      "stateMutability": "view",
      "type": "function"
    },
    {
      "inputs": [
        {
          "internalType": "uint256",
          "name": "_expenseId",
          "type": "uint256"
        }
      ],
      "name": "approveExpense",
      "outputs": [],
      "stateMutability": "nonpayable",
      "type": "function"
    },
    {
      "inputs": [
        {
          "internalType": "uint256",
          "name": "_projectId",
          "type": "uint256"
        }
      ],
      "name": "completeProject",
      "outputs": [],
      "stateMutability": "nonpayable",
      "type": "function"
    },
    {
      "inputs": [
        {
          "internalType": "string",
          "name": "_name",
          "type": "string"
        },
        {
          "internalType": "string",
          "name": "_description",
          "type": "string"
        },
        {
          "internalType": "uint256",
          "name": "_targetAmount",
          "type": "uint256"
        },
        {
          "internalType": "uint256",
          "name": "_duration",
          "type": "uint256"
        }
      ],
      "name": "createProject",
      "outputs": [
        {
          "internalType": "uint256",
          "name": "",
          "type": "uint256"
        }
      ],
      "stateMutability": "nonpayable",
      "type": "function"
    },
    {
      "inputs": [
        {
          "internalType": "uint256",
          "name": "_projectId",
          "type": "uint256"
        },
        {
          "internalType": "string",
          "name": "_message",
          "type": "string"
        },
        {
          "internalType": "bool",
          "name": "_isAnonymous",
          "type": "bool"
        }
      ],
      "name": "donate",
      "outputs": [],
      "stateMutability": "payable",
      "type": "function"
    },
    {
      "inputs": [],
      "name": "donationCounter",
      "outputs": [
        {
          "internalType": "uint256",
          "name": "",
          "type": "uint256"
        }
      ],
      "stateMutability": "view",
      "type": "function"
    },
    {
      "inputs": [
        {
          "internalType": "uint256",
          "name": "",
          "type": "uint256"
        }
      ],
      "name": "donations",
      "outputs": [
        {
          "internalType": "uint256",
          "name": "id",
          "type": "uint256"
        },
        {
          "internalType": "uint256",
          "name": "projectId",
          "type": "uint256"
        },
        {
          "internalType": "address",
          "name": "donor",
          "type": "address"
        },
        {
          "internalType": "uint256",
          "name": "amount",
          "type": "uint256"
        },
        {
          "internalType": "uint256",
          "name": "timestamp",
          "type": "uint256"
        },
        {
          "internalType": "string",
          "name": "message",
          "type": "string"
        },
        {
          "internalType": "bool",
          "name": "isAnonymous",
          "type": "bool"
        },
        {
          "internalType": "bool",
          "name": "exists",
          "type": "bool"
        }
      ],
      "stateMutability": "view",
      "type": "function"
    },
    {
      "inputs": [
        {
          "internalType": "address",
          "name": "",
          "type": "address"
        },
        {
          "internalType": "uint256",
          "name": "",
          "type": "uint256"
        }
      ],
      "name": "donorHistory",
      "outputs": [
        {
          "internalType": "uint256",
          "name": "",
          "type": "uint256"
        }
      ],
      "stateMutability": "view",
      "type": "function"
    },
    {
      "inputs": [
        {
          "internalType": "uint256",
          "name": "_projectId",
          "type": "uint256"
        }
      ],
      "name": "emergencyWithdraw",
      "outputs": [],
      "stateMutability": "nonpayable",
      "type": "function"
    },
    {
      "inputs": [
        {
          "internalType": "uint256",
          "name": "_expenseId",
          "type": "uint256"
        }
      ],
      "name": "executeExpense",
      "outputs": [],
      "stateMutability": "nonpayable",
      "type": "function"
    },
    {
      "inputs": [],
      "name": "expenseCounter",
      "outputs": [
        {
          "internalType": "uint256",
          "name": "",
          "type": "uint256"
        }
      ],
      "stateMutability": "view",
      "type": "function"
    },
    {
      "inputs": [
        {
          "internalType": "uint256",
          "name": "",
          "type": "uint256"
        }
      ],
      "name": "expenses",
      "outputs": [
        {
          "internalType": "uint256",
          "name": "id",
          "type": "uint256"
        },
        {
          "internalType": "uint256",
          "name": "projectId",
          "type": "uint256"
        },
        {
          "internalType": "string",
          "name": "description",
          "type": "string"
        },
        {
          "internalType": "uint256",
          "name": "amount",
          "type": "uint256"
        },
        {
          "internalType": "address",
          "name": "recipient",
          "type": "address"
        },
        {
          "internalType": "enum AlumniDonation.ExpenseStatus",
          "name": "status",
          "type": "uint8"
        },
        {
          "internalType": "uint256",
          "name": "requestTime",
          "type": "uint256"
        },
        {
          "internalType": "uint256",
          "name": "executeTime",
          "type": "uint256"
        },
        {
          "internalType": "bool",
          "name": "exists",
          "type": "bool"
        }
      ],
      "stateMutability": "view",
      "type": "function"
    },
    {
      "inputs": [],
      "name": "getContractBalance",
      "outputs": [
        {
          "internalType": "uint256",
          "name": "",
          "type": "uint256"
        }
      ],
      "stateMutability": "view",
      "type": "function"
    },
    {
      "inputs": [],
      "name": "getDonationCount",
      "outputs": [
        {
          "internalType": "uint256",
          "name": "",
          "type": "uint256"
        }
      ],
      "stateMutability": "view",
      "type": "function"
    },
    {
      "inputs": [
        {
          "internalType": "address",
          "name": "_donor",
          "type": "address"
        }
      ],
      "name": "getDonorHistory",
      "outputs": [
        {
          "internalType": "uint256[]",
          "name": "",
          "type": "uint256[]"
        }
      ],
      "stateMutability": "view",
      "type": "function"
    },
    {
      "inputs": [],
      "name": "getProjectCount",
      "outputs": [
        {
          "internalType": "uint256",
          "name": "",
          "type": "uint256"
        }
      ],
      "stateMutability": "view",
      "type": "function"
    },
    {
      "inputs": [
        {
          "internalType": "uint256",
          "name": "_projectId",
          "type": "uint256"
        }
      ],
      "name": "getProjectDonations",
      "outputs": [
        {
          "internalType": "uint256[]",
          "name": "",
          "type": "uint256[]"
        }
      ],
      "stateMutability": "view",
      "type": "function"
    },
    {
      "inputs": [
        {
          "internalType": "uint256",
          "name": "_projectId",
          "type": "uint256"
        }
      ],
      "name": "getProjectExpenses",
      "outputs": [
        {
          "internalType": "uint256[]",
          "name": "",
          "type": "uint256[]"
        }
      ],
      "stateMutability": "view",
      "type": "function"
    },
    {
      "inputs": [
        {
          "internalType": "uint256",
          "name": "_projectId",
          "type": "uint256"
        }
      ],
      "name": "getProjectProgress",
      "outputs": [
        {
          "internalType": "uint256",
          "name": "",
          "type": "uint256"
        }
      ],
      "stateMutability": "view",
      "type": "function"
    },
    {
      "inputs": [
        {
          "internalType": "bytes32",
          "name": "role",
          "type": "bytes32"
        }
      ],
      "name": "getRoleAdmin",
      "outputs": [
        {
          "internalType": "bytes32",
          "name": "",
          "type": "bytes32"
        }
      ],
      "stateMutability": "view",
      "type": "function"
    },
    {
      "inputs": [
        {
          "internalType": "bytes32",
          "name": "role",
          "type": "bytes32"
        },
        {
          "internalType": "address",
          "name": "account",
          "type": "address"
        }
      ],
      "name": "grantRole",
      "outputs": [],
      "stateMutability": "nonpayable",
      "type": "function"
    },
    {
      "inputs": [
        {
          "internalType": "bytes32",
          "name": "role",
          "type": "bytes32"
        },
        {
          "internalType": "address",
          "name": "account",
          "type": "address"
        }
      ],
      "name": "hasRole",
      "outputs": [
        {
          "internalType": "bool",
          "name": "",
          "type": "bool"
        }
      ],
      "stateMutability": "view",
      "type": "function"
    },
    {
      "inputs": [],
      "name": "pause",
      "outputs": [],
      "stateMutability": "nonpayable",
      "type": "function"
    },
    {
      "inputs": [],
      "name": "paused",
      "outputs": [
        {
          "internalType": "bool",
          "name": "",
          "type": "bool"
        }
      ],
      "stateMutability": "view",
      "type": "function"
    },
    {
      "inputs": [],
      "name": "projectCounter",
      "outputs": [
        {
          "internalType": "uint256",
          "name": "",
          "type": "uint256"
        }
      ],
      "stateMutability": "view",
      "type": "function"
    },
    {
      "inputs": [
        {
          "internalType": "uint256",
          "name": "",
          "type": "uint256"
        },
        {
          "internalType": "uint256",
          "name": "",
          "type": "uint256"
        }
      ],
      "name": "projectDonations",
      "outputs": [
        {
          "internalType": "uint256",
          "name": "",
          "type": "uint256"
        }
      ],
      "stateMutability": "view",
      "type": "function"
    },
    {
      "inputs": [
        {
          "internalType": "uint256",
          "name": "",
          "type": "uint256"
        },
        {
          "internalType": "uint256",
          "name": "",
          "type": "uint256"
        }
      ],
      "name": "projectExpenses",
      "outputs": [
        {
          "internalType": "uint256",
          "name": "",
          "type": "uint256"
        }
      ],
      "stateMutability": "view",
      "type": "function"
    },
    {
      "inputs": [
        {
          "internalType": "uint256",
          "name": "",
          "type": "uint256"
        }
      ],
      "name": "projects",
      "outputs": [
        {
          "internalType": "uint256",
          "name": "id",
          "type": "uint256"
        },
        {
          "internalType": "string",
          "name": "name",
          "type": "string"
        },
        {
          "internalType": "string",
          "name": "description",
          "type": "string"
        },
        {
          "internalType": "address",
          "name": "creator",
          "type": "address"
        },
        {
          "internalType": "uint256",
          "name": "targetAmount",
          "type": "uint256"
        },
        {
          "internalType": "uint256",
          "name": "raisedAmount",
          "type": "uint256"
        },
        {
          "internalType": "uint256",
          "name": "startTime",
          "type": "uint256"
        },
        {
          "internalType": "uint256",
          "name": "endTime",
          "type": "uint256"
        },
        {
          "internalType": "enum AlumniDonation.ProjectStatus",
          "name": "status",
          "type": "uint8"
        },
        {
          "internalType": "bool",
          "name": "exists",
          "type": "bool"
        }
      ],
      "stateMutability": "view",
      "type": "function"
    },
    {
      "inputs": [
        {
          "internalType": "bytes32",
          "name": "role",
          "type": "bytes32"
        },
        {
          "internalType": "address",
          "name": "callerConfirmation",
          "type": "address"
        }
      ],
      "name": "renounceRole",
      "outputs": [],
      "stateMutability": "nonpayable",
      "type": "function"
    },
    {
      "inputs": [
        {
          "internalType": "uint256",
          "name": "_projectId",
          "type": "uint256"
        },
        {
          "internalType": "string",
          "name": "_description",
          "type": "string"
        },
        {
          "internalType": "uint256",
          "name": "_amount",
          "type": "uint256"
        },
        {
          "internalType": "address",
          "name": "_recipient",
          "type": "address"
        }
      ],
      "name": "requestExpense",
      "outputs": [],
      "stateMutability": "nonpayable",
      "type": "function"
    },
    {
      "inputs": [
        {
          "internalType": "bytes32",
          "name": "role",
          "type": "bytes32"
        },
        {
          "internalType": "address",
          "name": "account",
          "type": "address"
        }
      ],
      "name": "revokeRole",
      "outputs": [],
      "stateMutability": "nonpayable",
      "type": "function"
    },
    {
      "inputs": [
        {
          "internalType": "bytes4",
          "name": "interfaceId",
          "type": "bytes4"
        }
      ],
      "name": "supportsInterface",
      "outputs": [
        {
          "internalType": "bool",
          "name": "",
          "type": "bool"
        }
      ],
      "stateMutability": "view",
      "type": "function"
    },
    {
      "inputs": [],
      "name": "unpause",
      "outputs": [],
      "stateMutability": "nonpayable",
      "type": "function"
    },
    {
      "inputs": [
        {
          "internalType": "uint256",
          "name": "_projectId",
          "type": "uint256"
        },
        {
          "internalType": "enum AlumniDonation.ProjectStatus",
          "name": "_newStatus",
          "type": "uint8"
        }
      ],
      "name": "updateProjectStatus",
      "outputs": [],
      "stateMutability": "nonpayable",
      "type": "function"
    },
    {
      "stateMutability": "payable",
      "type": "receive"
    }
  ],
  "bytecode": "0x608060405234801562000010575f80fd5b5060017f9b779b17422d0df92223018b32b4d1fa46e071723d6817e2486d003becc55f0055620000415f33620000a2565b506200006e7f4ff52032f36e32ac782042a01802e20394d4255c84a3c046490be98ab632691b33620000a2565b506200009b7f389e9e94a0cbbda4801070e24dd312eb7da88cf217f6d8bdbcb6e1812092e71d33620000a2565b506200014e565b5f828152602081815260408083206001600160a01b038516845290915281205460ff1662000145575f838152602081815260408083206001600160a01b03861684529091529020805460ff19166001179055620000fc3390565b6001600160a01b0316826001600160a01b0316847f2f8788117e7eff1d82e926ec794901d17c78024a50270940304540a733656f0d60405160405180910390a450600162000148565b505f5b92915050565b612837806200015c5f395ff3fe60806040526004361061020a575f3560e01c80636f9fb98a11610113578063c1d0a7d81161009d578063db8192bc1161006d578063db8192bc1461064a578063ddcad2ae14610669578063e55a62a81461067e578063f8626af814610692578063f8a518ed146106c5575f80fd5b8063c1d0a7d8146105cd578063c56f3cac146105ed578063d11d498b1461060c578063d547741f1461062b575f80fd5b806391d14854116100e357806391d148541461052957806394ba970914610548578063a217fddf14610567578063af4afe0a1461057a578063b579e7f1146105ae575f80fd5b80636f9fb98a146104c55780637969f3b8146104d7578063800cbe97146104f65780638456cb5914610515575f80fd5b806338d187dd116101945780634113f999116101645780634113f9991461041e578063413c3c6d1461043d5780634bd421be146104705780635312ea8e1461048f5780635c975abb146104ae575f80fd5b806338d187dd146103c25780633bcff3b0146103d75780633e4cbf42146103eb5780633f4ba83a1461040a575f80fd5b8063107046bd116101da578063107046bd146103025780632245f15214610337578063248a9ca3146103565780632f2ff15d1461038457806336568abe146103a3575f80fd5b806301ffc9a7146102605780630668472d146102945780630ccc9c30146102a95780630e617ad1146102d5575f80fd5b3661025c5760405162461bcd60e51b815260206004820152601f60248201527f55736520646f6e6174652066756e6374696f6e20746f2073656e64204554480060448201526064015b60405180910390fd5b5f80fd5b34801561026b575f80fd5b5061027f61027a366004612095565b6106da565b60405190151581526020015b60405180910390f35b6102a76102a2366004612108565b610710565b005b3480156102b4575f80fd5b506102c86102c3366004612167565b610a5f565b60405161028b919061217e565b3480156102e0575f80fd5b506102f46102ef366004612167565b610abe565b60405190815260200161028b565b34801561030d575f80fd5b5061032161031c366004612167565b610b41565b60405161028b9a99989796959493929190612234565b348015610342575f80fd5b506102a7610351366004612167565b610cac565b348015610361575f80fd5b506102f4610370366004612167565b5f9081526020819052604090206001015490565b34801561038f575f80fd5b506102a761039e3660046122cd565b610dc1565b3480156103ae575f80fd5b506102a76103bd3660046122cd565b610de5565b3480156103cd575f80fd5b506102f460035481565b3480156103e2575f80fd5b506002546102f4565b3480156103f6575f80fd5b506102c86104053660046122f7565b610e1d565b348015610415575f80fd5b506102a7610e84565b348015610429575f80fd5b506102a7610438366004612310565b610e99565b348015610448575f80fd5b506102f47f389e9e94a0cbbda4801070e24dd312eb7da88cf217f6d8bdbcb6e1812092e71d81565b34801561047b575f80fd5b506102f461048a366004612372565b6111b1565b34801561049a575f80fd5b506102a76104a9366004612167565b6111dc565b3480156104b9575f80fd5b5060015460ff1661027f565b3480156104d0575f80fd5b50476102f4565b3480156104e2575f80fd5b506102f46104f1366004612392565b61135a565b348015610501575f80fd5b506102a7610510366004612167565b611373565b348015610520575f80fd5b506102a7611604565b348015610534575f80fd5b5061027f6105433660046122cd565b611616565b348015610553575f80fd5b506102f46105623660046123ba565b61163e565b348015610572575f80fd5b506102f45f81565b348015610585575f80fd5b50610599610594366004612167565b61195d565b60405161028b99989796959493929190612432565b3480156105b9575f80fd5b506102a76105c8366004612167565b611a3d565b3480156105d8575f80fd5b506102f45f805160206127c283398151915281565b3480156105f8575f80fd5b506102f4610607366004612372565b611b8a565b348015610617575f80fd5b506102a761062636600461249d565b611ba3565b348015610636575f80fd5b506102a76106453660046122cd565b611cdf565b348015610655575f80fd5b506102c8610664366004612167565b611d03565b348015610674575f80fd5b506102f460045481565b348015610689575f80fd5b506003546102f4565b34801561069d575f80fd5b506106b16106ac366004612167565b611d60565b60405161028b9897969594939291906124ce565b3480156106d0575f80fd5b506102f460025481565b5f6001600160e01b03198216637965db0b60e01b148061070a57506301ffc9a760e01b6001600160e01b03198316145b92915050565b610718611e3a565b610720611e55565b5f848152600560205260409020600801548490610100900460ff166107575760405162461bcd60e51b815260040161025390612524565b8460015f8281526005602052604090206008015460ff16600381111561077f5761077f612204565b146107c45760405162461bcd60e51b815260206004820152601560248201527450726f6a656374206973206e6f742061637469766560581b6044820152606401610253565b5f34116108225760405162461bcd60e51b815260206004820152602660248201527f446f6e6174696f6e20616d6f756e74206d75737420626520677265617465722060448201526507468616e20360d41b6064820152608401610253565b5f86815260056020526040902060078101544211156108835760405162461bcd60e51b815260206004820152601d60248201527f50726f6a6563742066756e6472616973696e672068617320656e6465640000006044820152606401610253565b60038054905f61089283612568565b9091555050600354604080516101008101825282815260208082018b905233828401523460608301524260808301528251601f8a01829004820281018201909352888352909160a08301918a908a90819084018382808284375f920182905250938552505050871515602080840191909152600160409384018190528583526006825291839020845181559084015191810191909155908201516002820180546001600160a01b0319166001600160a01b03909216919091179055606082015160038201556080820151600482015560a082015160058201906109759082612613565b5060c08201516006909101805460e09093015115156101000261ff00199215159290921661ffff19909316929092171790556005820180543491905f906109bd9084906126cf565b90915550505f8881526008602090815260408083208054600180820183559185528385200185905533808552600a845282852080549283018155855293839020018490558051348152881515928101929092528a9184917f35f370d7185aede3c73ceda64e1afd693daff13b61d59a458183cfe42919cd5d910160405180910390a450505050610a5960015f805160206127e283398151915255565b50505050565b5f81815260086020908152604091829020805483518184028101840190945280845260609392830182828015610ab257602002820191905f5260205f20905b815481526020019060010190808311610a9e575b50505050509050919050565b5f818152600560205260408120600801548290610100900460ff16610af55760405162461bcd60e51b815260040161025390612524565b5f8381526005602052604081206004810154909103610b17575f925050610b3b565b60048101546005820154610b2d906127106126e2565b610b3791906126f9565b9250505b50919050565b60056020525f908152604090208054600182018054919291610b6290612594565b80601f0160208091040260200160405190810160405280929190818152602001828054610b8e90612594565b8015610bd95780601f10610bb057610100808354040283529160200191610bd9565b820191905f5260205f20905b815481529060010190602001808311610bbc57829003601f168201915b505050505090806002018054610bee90612594565b80601f0160208091040260200160405190810160405280929190818152602001828054610c1a90612594565b8015610c655780601f10610c3c57610100808354040283529160200191610c65565b820191905f5260205f20905b815481529060010190602001808311610c4857829003601f168201915b5050506003840154600485015460058601546006870154600788015460089098015496976001600160a01b0390941696929550909350919060ff808216916101009004168a565b5f805160206127c2833981519152610cc381611e7b565b5f828152600560205260409020600801548290610100900460ff16610cfa5760405162461bcd60e51b815260040161025390612524565b5f8381526005602052604090206001600882015460ff166003811115610d2257610d22612204565b14610d685760405162461bcd60e51b815260206004820152601660248201527550726f6a656374206d7573742062652061637469766560501b6044820152606401610253565b60088101805460ff1916600290811790915542600783015560405185917ff75c354d0772e6386c514de8e03be6b7fb27fe941335caa779ee1b9f34fe0c1e91610db391600191612718565b60405180910390a250505050565b5f82815260208190526040902060010154610ddb81611e7b565b610a598383611e85565b6001600160a01b0381163314610e0e5760405163334bd91960e11b815260040160405180910390fd5b610e188282611f14565b505050565b6001600160a01b0381165f908152600a6020908152604091829020805483518184028101840190945280845260609392830182828015610ab257602002820191905f5260205f2090815481526020019060010190808311610a9e5750505050509050919050565b5f610e8e81611e7b565b610e96611f7d565b50565b5f805160206127c2833981519152610eb081611e7b565b5f868152600560205260409020600801548690610100900460ff16610ee75760405162461bcd60e51b815260040161025390612524565b5f8411610f365760405162461bcd60e51b815260206004820152601d60248201527f416d6f756e74206d7573742062652067726561746572207468616e20300000006044820152606401610253565b6001600160a01b038316610f8c5760405162461bcd60e51b815260206004820152601960248201527f496e76616c696420726563697069656e742061646472657373000000000000006044820152606401610253565b5f87815260056020819052604090912090810154851115610fe45760405162461bcd60e51b8152602060048201526012602482015271496e73756666696369656e742066756e647360701b6044820152606401610253565b60048054905f610ff383612568565b91905055505f60045490506040518061012001604052808281526020018a815260200189898080601f0160208091040260200160405190810160405280939291908181526020018383808284375f92018290525093855250505060208083018a90526001600160a01b0389166040808501919091526060840183905242608085015260a08401839052600160c0909401849052858352600782529182902084518155908401519281019290925582015160028201906110b29082612613565b50606082015160038083019190915560808301516004830180546001600160a01b039092166001600160a01b031983168117825560a08601519391926001600160a81b0319161790600160a01b90849081111561111157611111612204565b021790555060c0820151600582015560e08201516006820155610100909101516007909101805460ff19169115159190911790555f8981526009602090815260408083208054600181018255908452919092200182905551899082907fdd3006471c4b6382787e7fbb39bdc4eff15ee9b7ea83d51dfcf3f1a30d0b921b9061119e908a908d908d90612766565b60405180910390a3505050505050505050565b6009602052815f5260405f2081815481106111ca575f80fd5b905f5260205f20015f91509150505481565b5f6111e681611e7b565b5f828152600560205260409020600801548290610100900460ff1661121d5760405162461bcd60e51b815260040161025390612524565b611225611e3a565b5f838152600560208190526040909120908101548061127d5760405162461bcd60e51b81526020600482015260146024820152734e6f2066756e647320746f20776974686472617760601b6044820152606401610253565b5f60058301819055604051339083908381818185875af1925050503d805f81146112c2576040519150601f19603f3d011682016040523d82523d5f602084013e6112c7565b606091505b505090508061130a5760405162461bcd60e51b815260206004820152600f60248201526e151c985b9cd9995c8819985a5b1959608a1b6044820152606401610253565b604051828152339087907ff440aec6b52895984d061d622e6edeba6210f7c3e059be920663140c084560d79060200160405180910390a3505050610e1860015f805160206127e283398151915255565b600a602052815f5260405f2081815481106111ca575f80fd5b5f805160206127c283398151915261138a81611e7b565b611392611e3a565b5f8281526007602081905260409091209081015460ff166113ee5760405162461bcd60e51b8152602060048201526016602482015275115e1c195b9cd948191bd95cc81b9bdd08195e1a5cdd60521b6044820152606401610253565b60016004820154600160a01b900460ff16600381111561141057611410612204565b1461145d5760405162461bcd60e51b815260206004820152601860248201527f457870656e7365206d75737420626520617070726f76656400000000000000006044820152606401610253565b5f60055f836001015481526020019081526020015f2090508160030154816005015410156114c25760405162461bcd60e51b8152602060048201526012602482015271496e73756666696369656e742066756e647360701b6044820152606401610253565b60048201805460ff60a01b1916600360a01b17905542600683015560038201546005820180545f906114f5908490612788565b9091555050600482015460038301546040515f926001600160a01b031691908381818185875af1925050503d805f811461154a576040519150601f19603f3d011682016040523d82523d5f602084013e61154f565b606091505b50509050806115925760405162461bcd60e51b815260206004820152600f60248201526e151c985b9cd9995c8819985a5b1959608a1b6044820152606401610253565b600183015460048401546003850154604080516001600160a01b039093168352602083019190915287917f60784bf38798726badbe655a4d93dc5cd2f545b7b8d6f21af643e62d0eb3c291910160405180910390a350505061160060015f805160206127e283398151915255565b5050565b5f61160e81611e7b565b610e96611fcf565b5f918252602082815260408084206001600160a01b0393909316845291905290205460ff1690565b5f5f805160206127c283398151915261165681611e7b565b61165e611e55565b866116ab5760405162461bcd60e51b815260206004820152601c60248201527f50726f6a656374206e616d652063616e6e6f7420626520656d707479000000006044820152606401610253565b5f84116117065760405162461bcd60e51b8152602060048201526024808201527f54617267657420616d6f756e74206d75737420626520677265617465722074686044820152630616e20360e41b6064820152608401610253565b5f83116117555760405162461bcd60e51b815260206004820152601f60248201527f4475726174696f6e206d7573742062652067726561746572207468616e2030006044820152606401610253565b60028054905f61176483612568565b91905055505f60025490506040518061014001604052808281526020018a8a8080601f0160208091040260200160405190810160405280939291908181526020018383808284375f92019190915250505090825250604080516020601f8b0181900481028201810190925289815291810191908a908a90819084018382808284375f920182905250938552505033602084015250604082018890526060820152426080820181905260a09091019061181d9087906126cf565b815260200160018152600160209182018190525f84815260058352604090208351815591830151908201906118529082612613565b50604082015160028201906118679082612613565b506060820151600382810180546001600160a01b0319166001600160a01b03909316929092179091556080830151600483015560a0830151600583015560c0830151600683015560e083015160078301556101008301516008830180549192909160ff19169060019084908111156118e1576118e1612204565b02179055506101209190910151600890910180549115156101000261ff001990921691909117905533817fcfbb9cc3bd62a88127a0a357ef5745ce183a4f314f3f36a4302bbe74b89e2f1d8b8b896119398a426126cf565b604051611949949392919061279b565b60405180910390a398975050505050505050565b60076020525f90815260409020805460018201546002830180549293919261198490612594565b80601f01602080910402602001604051908101604052809291908181526020018280546119b090612594565b80156119fb5780601f106119d2576101008083540402835291602001916119fb565b820191905f5260205f20905b8154815290600101906020018083116119de57829003601f168201915b5050506003840154600485015460058601546006870154600790970154959692956001600160a01b038316955060ff600160a01b909304831694509092911689565b7f389e9e94a0cbbda4801070e24dd312eb7da88cf217f6d8bdbcb6e1812092e71d611a6781611e7b565b5f8281526007602081905260409091209081015460ff16611ac35760405162461bcd60e51b8152602060048201526016602482015275115e1c195b9cd948191bd95cc81b9bdd08195e1a5cdd60521b6044820152606401610253565b5f6004820154600160a01b900460ff166003811115611ae457611ae4612204565b14611b315760405162461bcd60e51b815260206004820152601760248201527f457870656e7365206d7573742062652070656e64696e670000000000000000006044820152606401610253565b60048101805460ff60a01b1916600160a01b1790556001810154600382015460405190815284907fcf8a52069121d97d379d5069aff21e8096d9d1eb37d87dcaf0c378803a48aae29060200160405180910390a3505050565b6008602052815f5260405f2081815481106111ca575f80fd5b5f805160206127c2833981519152611bba81611e7b565b5f838152600560205260409020600801548390610100900460ff16611bf15760405162461bcd60e51b815260040161025390612524565b5f848152600560205260409020600881015460ff16846003811115611c1857611c18612204565b816003811115611c2a57611c2a612204565b03611c775760405162461bcd60e51b815260206004820152601c60248201527f4e657720737461747573206d75737420626520646966666572656e74000000006044820152606401610253565b60088201805486919060ff19166001836003811115611c9857611c98612204565b0217905550857ff75c354d0772e6386c514de8e03be6b7fb27fe941335caa779ee1b9f34fe0c1e8287604051611ccf929190612718565b60405180910390a2505050505050565b5f82815260208190526040902060010154611cf981611e7b565b610a598383611f14565b5f81815260096020908152604091829020805483518184028101840190945280845260609392830182828015610ab257602002820191905f5260205f2090815481526020019060010190808311610a9e5750505050509050919050565b60066020525f9081526040902080546001820154600283015460038401546004850154600586018054959694956001600160a01b03909416949293919291611da790612594565b80601f0160208091040260200160405190810160405280929190818152602001828054611dd390612594565b8015611e1e5780601f10611df557610100808354040283529160200191611e1e565b820191905f5260205f20905b815481529060010190602001808311611e0157829003601f168201915b5050506006909301549192505060ff8082169161010090041688565b611e4261200a565b60025f805160206127e283398151915255565b60015460ff1615611e795760405163d93c066560e01b815260040160405180910390fd5b565b610e968133612039565b5f611e908383611616565b611f0d575f838152602081815260408083206001600160a01b03861684529091529020805460ff19166001179055611ec53390565b6001600160a01b0316826001600160a01b0316847f2f8788117e7eff1d82e926ec794901d17c78024a50270940304540a733656f0d60405160405180910390a450600161070a565b505f61070a565b5f611f1f8383611616565b15611f0d575f838152602081815260408083206001600160a01b0386168085529252808320805460ff1916905551339286917ff6391f5c32d9c69d2a47ea670b442974b53935d1edc7fd64eb21e047a839171b9190a450600161070a565b611f85612072565b6001805460ff191690557f5db9ee0a495bf2e6ff9c91a7834c1ba4fdd244a5e8aa4e537bd38aeae4b073aa335b6040516001600160a01b03909116815260200160405180910390a1565b611fd7611e55565b6001805460ff1916811790557f62e78cea01bee320cd4e420270b5ea74000d11b0c9f74754ebdbfc544b05a25833611fb2565b5f805160206127e283398151915254600203611e7957604051633ee5aeb560e01b815260040160405180910390fd5b6120438282611616565b6116005760405163e2517d3f60e01b81526001600160a01b038216600482015260248101839052604401610253565b60015460ff16611e7957604051638dfc202b60e01b815260040160405180910390fd5b5f602082840312156120a5575f80fd5b81356001600160e01b0319811681146120bc575f80fd5b9392505050565b5f8083601f8401126120d3575f80fd5b50813567ffffffffffffffff8111156120ea575f80fd5b602083019150836020828501011115612101575f80fd5b9250929050565b5f805f806060858703121561211b575f80fd5b84359350602085013567ffffffffffffffff811115612138575f80fd5b612144878288016120c3565b9094509250506040850135801515811461215c575f80fd5b939692955090935050565b5f60208284031215612177575f80fd5b5035919050565b602080825282518282018190525f9190848201906040850190845b818110156121b557835183529284019291840191600101612199565b50909695505050505050565b5f81518084525f5b818110156121e5576020818501810151868301820152016121c9565b505f602082860101526020601f19601f83011685010191505092915050565b634e487b7160e01b5f52602160045260245ffd5b60048110610e9657634e487b7160e01b5f52602160045260245ffd5b5f6101408c835280602084015261224d8184018d6121c1565b90508281036040840152612261818c6121c1565b91505060018060a01b03891660608301528760808301528660a08301528560c08301528460e083015261229384612218565b836101008301528215156101208301529b9a5050505050505050505050565b80356001600160a01b03811681146122c8575f80fd5b919050565b5f80604083850312156122de575f80fd5b823591506122ee602084016122b2565b90509250929050565b5f60208284031215612307575f80fd5b6120bc826122b2565b5f805f805f60808688031215612324575f80fd5b85359450602086013567ffffffffffffffff811115612341575f80fd5b61234d888289016120c3565b90955093505060408601359150612366606087016122b2565b90509295509295909350565b5f8060408385031215612383575f80fd5b50508035926020909101359150565b5f80604083850312156123a3575f80fd5b6123ac836122b2565b946020939093013593505050565b5f805f805f80608087890312156123cf575f80fd5b863567ffffffffffffffff808211156123e6575f80fd5b6123f28a838b016120c3565b9098509650602089013591508082111561240a575f80fd5b5061241789828a016120c3565b979a9699509760408101359660609091013595509350505050565b5f6101208b83528a60208401528060408401526124518184018b6121c1565b606084018a90526001600160a01b03891660808501529150612474905086612218565b8560a08301528460c08301528360e08301528215156101008301529a9950505050505050505050565b5f80604083850312156124ae575f80fd5b823591506020830135600481106124c3575f80fd5b809150509250929050565b5f6101008a835289602084015260018060a01b03891660408401528760608401528660808401528060a0840152612507818401876121c1565b94151560c0840152505090151560e0909101529695505050505050565b602080825260169082015275141c9bda9958dd08191bd95cc81b9bdd08195e1a5cdd60521b604082015260600190565b634e487b7160e01b5f52601160045260245ffd5b5f6001820161257957612579612554565b5060010190565b634e487b7160e01b5f52604160045260245ffd5b600181811c908216806125a857607f821691505b602082108103610b3b57634e487b7160e01b5f52602260045260245ffd5b601f821115610e18575f81815260208120601f850160051c810160208610156125ec5750805b601f850160051c820191505b8181101561260b578281556001016125f8565b505050505050565b815167ffffffffffffffff81111561262d5761262d612580565b6126418161263b8454612594565b846125c6565b602080601f831160018114612674575f841561265d5750858301515b5f19600386901b1c1916600185901b17855561260b565b5f85815260208120601f198616915b828110156126a257888601518255948401946001909101908401612683565b50858210156126bf57878501515f19600388901b60f8161c191681555b5050505050600190811b01905550565b8082018082111561070a5761070a612554565b808202811582820484141761070a5761070a612554565b5f8261271357634e487b7160e01b5f52601260045260245ffd5b500490565b6040810161272584612218565b83825261273183612218565b8260208301529392505050565b81835281816020850137505f828201602090810191909152601f909101601f19169091010190565b838152604060208201525f61277f60408301848661273e565b95945050505050565b8181038181111561070a5761070a612554565b606081525f6127ae60608301868861273e565b602083019490945250604001529291505056fe4ff52032f36e32ac782042a01802e20394d4255c84a3c046490be98ab632691b9b779b17422d0df92223018b32b4d1fa46e071723d6817e2486d003becc55f00a264697066735822122020731bed86523813b700719d1d6505e65743e287a5654f539d942138fcb34bb364736f6c63430008140033",
  "source": "// SPDX-License-Identifier: MIT\r\npragma solidity ^0.8.20;\r\n\r\nimport \"@openzeppelin/contracts/access/AccessControl.sol\";\r\nimport \"@openzeppelin/contracts/utils/ReentrancyGuard.sol\";\r\nimport \"@openzeppelin/contracts/utils/Pausable.sol\";\r\n\r\n/**\r\n * @title AlumniDonation\r\n * @dev 校友捐赠追踪平台智能合约\r\n * 实现捐赠项目管理、资金追踪、透明支出等功能\r\n */\r\ncontract AlumniDonation is AccessControl, ReentrancyGuard, Pausable {\r\n    \r\n    // ==================== 角色定义 ====================\r\n    bytes32 public constant PLATFORM_ADMIN = keccak256(\"PLATFORM_ADMIN\");\r\n    bytes32 public constant PROJECT_AUDITOR = keccak256(\"PROJECT_AUDITOR\");\r\n    \r\n    // ==================== 枚举类型 ====================\r\n    enum ProjectStatus { \r\n        Draft,      // 草稿\r\n        Active,     // 募集中\r\n        Completed,  // 已完成\r\n        Cancelled   // 已取消\r\n    }\r\n    \r\n    enum ExpenseStatus {\r\n        Pending,    // 待审批\r\n        Approved,   // 已批准\r\n        Rejected,   // 已拒绝\r\n        Executed    // 已执行\r\n    }\r\n    \r\n    // ==================== 数据结构 ====================\r\n    struct Project {\r\n        uint256 id;\r\n        string name;\r\n        string description;\r\n        address creator;\r\n        uint256 targetAmount;\r\n        uint256 raisedAmount;\r\n        uint256 startTime;\r\n        uint256 endTime;\r\n        ProjectStatus status;\r\n        bool exists;\r\n    }\r\n    \r\n    struct Donation {\r\n        uint256 id;\r\n        uint256 projectId;\r\n        address donor;\r\n        uint256 amount;\r\n        uint256 timestamp;\r\n        string message;\r\n        bool isAnonymous;\r\n        bool exists;\r\n    }\r\n    \r\n    struct Expense {\r\n        uint256 id;\r\n        uint256 projectId;\r\n        string description;\r\n        uint256 amount;\r\n        address recipient;\r\n        ExpenseStatus status;\r\n        uint256 requestTime;\r\n        uint256 executeTime;\r\n        bool exists;\r\n    }\r\n    \r\n    // ==================== 状态变量 ====================\r\n    uint256 public projectCounter;\r\n    uint256 public donationCounter;\r\n    uint256 public expenseCounter;\r\n    \r\n    mapping(uint256 => Project) public projects;\r\n    mapping(uint256 => Donation) public donations;\r\n    mapping(uint256 => Expense) public expenses;\r\n    \r\n    // 项目ID => 捐赠ID数组\r\n    mapping(uint256 => uint256[]) public projectDonations;\r\n    // 项目ID => 支出ID数组\r\n    mapping(uint256 => uint256[]) public projectExpenses;\r\n    // 捐赠者地址 => 捐赠ID数组\r\n    mapping(address => uint256[]) public donorHistory;\r\n    \r\n    // ==================== 事件定义 ====================\r\n    event ProjectCreated(\r\n        uint256 indexed projectId,\r\n        string name,\r\n        address indexed creator,\r\n        uint256 targetAmount,\r\n        uint256 endTime\r\n    );\r\n    \r\n    event ProjectStatusChanged(\r\n        uint256 indexed projectId,\r\n        ProjectStatus oldStatus,\r\n        ProjectStatus newStatus\r\n    );\r\n    \r\n    event DonationReceived(\r\n        uint256 indexed donationId,\r\n        uint256 indexed projectId,\r\n        address indexed donor,\r\n        uint256 amount,\r\n        bool isAnonymous\r\n    );\r\n    \r\n    event ExpenseRequested(\r\n        uint256 indexed expenseId,\r\n        uint256 indexed projectId,\r\n        uint256 amount,\r\n        string description\r\n    );\r\n    \r\n    event ExpenseApproved(\r\n        uint256 indexed expenseId,\r\n        uint256 indexed projectId,\r\n        uint256 amount\r\n    );\r\n    \r\n    event ExpenseExecuted(\r\n        uint256 indexed expenseId,\r\n        uint256 indexed projectId,\r\n        address recipient,\r\n        uint256 amount\r\n    );\r\n    \r\n    event FundsWithdrawn(\r\n        uint256 indexed projectId,\r\n        address indexed recipient,\r\n        uint256 amount\r\n    );\r\n    \r\n    // ==================== 构造函数 ====================\r\n    constructor() {\r\n        _grantRole(DEFAULT_ADMIN_ROLE, msg.sender);\r\n        _grantRole(PLATFORM_ADMIN, msg.sender);\r\n        _grantRole(PROJECT_AUDITOR, msg.sender);\r\n    }\r\n    \r\n    // ==================== 修饰器 ====================\r\n    modifier projectExists(uint256 _projectId) {\r\n        require(projects[_projectId].exists, \"Project does not exist\");\r\n        _;\r\n    }\r\n    \r\n    modifier onlyActiveProject(uint256 _projectId) {\r\n        require(projects[_projectId].status == ProjectStatus.Active, \"Project is not active\");\r\n        _;\r\n    }\r\n    \r\n    // ==================== 项目管理函数 ====================\r\n    \r\n    /**\r\n     * @dev 创建新的捐赠项目\r\n     * @param _name 项目名称\r\n     * @param _description 项目描述\r\n     * @param _targetAmount 目标金额（wei）\r\n     * @param _duration 募集持续时间（秒）\r\n     */\r\n    function createProject(\r\n        string calldata _name,\r\n        string calldata _description,\r\n        uint256 _targetAmount,\r\n        uint256 _duration\r\n    ) external onlyRole(PLATFORM_ADMIN) whenNotPaused returns (uint256) {\r\n        require(bytes(_name).length > 0, \"Project name cannot be empty\");\r\n        require(_targetAmount > 0, \"Target amount must be greater than 0\");\r\n        require(_duration > 0, \"Duration must be greater than 0\");\r\n        \r\n        projectCounter++;\r\n        uint256 projectId = projectCounter;\r\n        \r\n        projects[projectId] = Project({\r\n            id: projectId,\r\n            name: _name,\r\n            description: _description,\r\n            creator: msg.sender,\r\n            targetAmount: _targetAmount,\r\n            raisedAmount: 0,\r\n            startTime: block.timestamp,\r\n            endTime: block.timestamp + _duration,\r\n            status: ProjectStatus.Active,\r\n            exists: true\r\n        });\r\n        \r\n        emit ProjectCreated(\r\n            projectId,\r\n            _name,\r\n            msg.sender,\r\n            _targetAmount,\r\n            block.timestamp + _duration\r\n        );\r\n        \r\n        return projectId;\r\n    }\r\n    \r\n    /**\r\n     * @dev 更新项目状态\r\n     */\r\n    function updateProjectStatus(\r\n        uint256 _projectId,\r\n        ProjectStatus _newStatus\r\n    ) external onlyRole(PLATFORM_ADMIN) projectExists(_projectId) {\r\n        Project storage project = projects[_projectId];\r\n        ProjectStatus oldStatus = project.status;\r\n        \r\n        require(oldStatus != _newStatus, \"New status must be different\");\r\n        \r\n        project.status = _newStatus;\r\n        \r\n        emit ProjectStatusChanged(_projectId, oldStatus, _newStatus);\r\n    }\r\n    \r\n    /**\r\n     * @dev 提前结束项目募集\r\n     */\r\n    function completeProject(\r\n        uint256 _projectId\r\n    ) external onlyRole(PLATFORM_ADMIN) projectExists(_projectId) {\r\n        Project storage project = projects[_projectId];\r\n        require(project.status == ProjectStatus.Active, \"Project must be active\");\r\n        \r\n        project.status = ProjectStatus.Completed;\r\n        project.endTime = block.timestamp;\r\n        \r\n        emit ProjectStatusChanged(_projectId, ProjectStatus.Active, ProjectStatus.Completed);\r\n    }\r\n    \r\n    // ==================== 捐赠函数 ====================\r\n    \r\n    /**\r\n     * @dev 向指定项目捐赠\r\n     * @param _projectId 项目ID\r\n     * @param _message 捐赠留言\r\n     * @param _isAnonymous 是否匿名\r\n     */\r\n    function donate(\r\n        uint256 _projectId,\r\n        string calldata _message,\r\n        bool _isAnonymous\r\n    ) external payable nonReentrant whenNotPaused \r\n      projectExists(_projectId) \r\n      onlyActiveProject(_projectId) {\r\n        require(msg.value > 0, \"Donation amount must be greater than 0\");\r\n        \r\n        Project storage project = projects[_projectId];\r\n        require(block.timestamp <= project.endTime, \"Project fundraising has ended\");\r\n        \r\n        donationCounter++;\r\n        uint256 donationId = donationCounter;\r\n        \r\n        donations[donationId] = Donation({\r\n            id: donationId,\r\n            projectId: _projectId,\r\n            donor: msg.sender,\r\n            amount: msg.value,\r\n            timestamp: block.timestamp,\r\n            message: _message,\r\n            isAnonymous: _isAnonymous,\r\n            exists: true\r\n        });\r\n        \r\n        project.raisedAmount += msg.value;\r\n        projectDonations[_projectId].push(donationId);\r\n        donorHistory[msg.sender].push(donationId);\r\n        \r\n        emit DonationReceived(donationId, _projectId, msg.sender, msg.value, _isAnonymous);\r\n    }\r\n    \r\n    // ==================== 支出管理函数 ====================\r\n    \r\n    /**\r\n     * @dev 申请项目资金支出\r\n     * @param _projectId 项目ID\r\n     * @param _description 支出说明\r\n     * @param _amount 支出金额\r\n     * @param _recipient 收款地址\r\n     */\r\n    function requestExpense(\r\n        uint256 _projectId,\r\n        string calldata _description,\r\n        uint256 _amount,\r\n        address _recipient\r\n    ) external onlyRole(PLATFORM_ADMIN) projectExists(_projectId) {\r\n        require(_amount > 0, \"Amount must be greater than 0\");\r\n        require(_recipient != address(0), \"Invalid recipient address\");\r\n        \r\n        Project storage project = projects[_projectId];\r\n        require(project.raisedAmount >= _amount, \"Insufficient funds\");\r\n        \r\n        expenseCounter++;\r\n        uint256 expenseId = expenseCounter;\r\n        \r\n        expenses[expenseId] = Expense({\r\n            id: expenseId,\r\n            projectId: _projectId,\r\n            description: _description,\r\n            amount: _amount,\r\n            recipient: _recipient,\r\n            status: ExpenseStatus.Pending,\r\n            requestTime: block.timestamp,\r\n            executeTime: 0,\r\n            exists: true\r\n        });\r\n        \r\n        projectExpenses[_projectId].push(expenseId);\r\n        \r\n        emit ExpenseRequested(expenseId, _projectId, _amount, _description);\r\n    }\r\n    \r\n    /**\r\n     * @dev 审批支出申请\r\n     */\r\n    function approveExpense(\r\n        uint256 _expenseId\r\n    ) external onlyRole(PROJECT_AUDITOR) {\r\n        Expense storage expense = expenses[_expenseId];\r\n        require(expense.exists, \"Expense does not exist\");\r\n        require(expense.status == ExpenseStatus.Pending, \"Expense must be pending\");\r\n        \r\n        expense.status = ExpenseStatus.Approved;\r\n        \r\n        emit ExpenseApproved(_expenseId, expense.projectId, expense.amount);\r\n    }\r\n    \r\n    /**\r\n     * @dev 执行已批准的支出\r\n     */\r\n    function executeExpense(\r\n        uint256 _expenseId\r\n    ) external onlyRole(PLATFORM_ADMIN) nonReentrant {\r\n        Expense storage expense = expenses[_expenseId];\r\n        require(expense.exists, \"Expense does not exist\");\r\n        require(expense.status == ExpenseStatus.Approved, \"Expense must be approved\");\r\n        \r\n        Project storage project = projects[expense.projectId];\r\n        require(project.raisedAmount >= expense.amount, \"Insufficient funds\");\r\n        \r\n        expense.status = ExpenseStatus.Executed;\r\n        expense.executeTime = block.timestamp;\r\n        project.raisedAmount -= expense.amount;\r\n        \r\n        (bool success, ) = expense.recipient.call{value: expense.amount}(\"\");\r\n        require(success, \"Transfer failed\");\r\n        \r\n        emit ExpenseExecuted(\r\n            _expenseId,\r\n            expense.projectId,\r\n            expense.recipient,\r\n            expense.amount\r\n        );\r\n    }\r\n    \r\n    // ==================== 查询函数 ====================\r\n    \r\n    /**\r\n     * @dev 获取项目的所有捐赠记录ID\r\n     */\r\n    function getProjectDonations(uint256 _projectId) external view returns (uint256[] memory) {\r\n        return projectDonations[_projectId];\r\n    }\r\n    \r\n    /**\r\n     * @dev 获取项目的所有支出记录ID\r\n     */\r\n    function getProjectExpenses(uint256 _projectId) external view returns (uint256[] memory) {\r\n        return projectExpenses[_projectId];\r\n    }\r\n    \r\n    /**\r\n     * @dev 获取捐赠者的捐赠历史\r\n     */\r\n    function getDonorHistory(address _donor) external view returns (uint256[] memory) {\r\n        return donorHistory[_donor];\r\n    }\r\n    \r\n    /**\r\n     * @dev 获取项目数量\r\n     */\r\n    function getProjectCount() external view returns (uint256) {\r\n        return projectCounter;\r\n    }\r\n    \r\n    /**\r\n     * @dev 获取捐赠总数\r\n     */\r\n    function getDonationCount() external view returns (uint256) {\r\n        return donationCounter;\r\n    }\r\n    \r\n    /**\r\n     * @dev 获取合约余额\r\n     */\r\n    function getContractBalance() external view returns (uint256) {\r\n        return address(this).balance;\r\n    }\r\n    \r\n    /**\r\n     * @dev 获取项目进度百分比（0-10000，表示0%-100%）\r\n     */\r\n    function getProjectProgress(uint256 _projectId) external view projectExists(_projectId) returns (uint256) {\r\n        Project storage project = projects[_projectId];\r\n        if (project.targetAmount == 0) return 0;\r\n        return (project.raisedAmount * 10000) / project.targetAmount;\r\n    }\r\n    \r\n    // ==================== 管理函数 ====================\r\n    \r\n    /**\r\n     * @dev 紧急暂停合约\r\n     */\r\n    function pause() external onlyRole(DEFAULT_ADMIN_ROLE) {\r\n        _pause();\r\n    }\r\n    \r\n    /**\r\n     * @dev 恢复合约\r\n     */\r\n    function unpause() external onlyRole(DEFAULT_ADMIN_ROLE) {\r\n        _unpause();\r\n    }\r\n    \r\n    /**\r\n     * @dev 接收ETH\r\n     */\r\n    receive() external payable {\r\n        revert(\"Use donate function to send ETH\");\r\n    }\r\n    \r\n    /**\r\n     * @dev 紧急提款（仅管理员）\r\n     */\r\n    function emergencyWithdraw(\r\n        uint256 _projectId\r\n    ) external onlyRole(DEFAULT_ADMIN_ROLE) projectExists(_projectId) nonReentrant {\r\n        Project storage project = projects[_projectId];\r\n        uint256 amount = project.raisedAmount;\r\n        require(amount > 0, \"No funds to withdraw\");\r\n        \r\n        project.raisedAmount = 0;\r\n        \r\n        (bool success, ) = msg.sender.call{value: amount}(\"\");\r\n        require(success, \"Transfer failed\");\r\n        \r\n        emit FundsWithdrawn(_projectId, msg.sender, amount);\r\n    }\r\n}\r\n",
  "compiler": {
    "name": "solc",
    "version": "0.8.20+commit.a1b79de6.Emscripten.clang"
  }
}